{"abi":[{"type":"constructor","inputs":[],"stateMutability":"nonpayable"},{"type":"function","name":"balanceOf","inputs":[{"name":"account","type":"address","internalType":"address"},{"name":"id","type":"uint256","internalType":"uint256"}],"outputs":[{"name":"","type":"uint256","internalType":"uint256"}],"stateMutability":"view"},{"type":"function","name":"balanceOfBatch","inputs":[{"name":"accounts","type":"address[]","internalType":"address[]"},{"name":"ids","type":"uint256[]","internalType":"uint256[]"}],"outputs":[{"name":"","type":"uint256[]","internalType":"uint256[]"}],"stateMutability":"view"},{"type":"function","name":"isApprovedForAll","inputs":[{"name":"account","type":"address","internalType":"address"},{"name":"operator","type":"address","internalType":"address"}],"outputs":[{"name":"","type":"bool","internalType":"bool"}],"stateMutability":"view"},{"type":"function","name":"mintFractions","inputs":[{"name":"assetId","type":"uint256","internalType":"uint256"},{"name":"shares","type":"uint256","internalType":"uint256"},{"name":"owner","type":"address","internalType":"address"}],"outputs":[],"stateMutability":"nonpayable"},{"type":"function","name":"safeBatchTransferFrom","inputs":[{"name":"from","type":"address","internalType":"address"},{"name":"to","type":"address","internalType":"address"},{"name":"ids","type":"uint256[]","internalType":"uint256[]"},{"name":"values","type":"uint256[]","internalType":"uint256[]"},{"name":"data","type":"bytes","internalType":"bytes"}],"outputs":[],"stateMutability":"nonpayable"},{"type":"function","name":"safeTransferFrom","inputs":[{"name":"from","type":"address","internalType":"address"},{"name":"to","type":"address","internalType":"address"},{"name":"id","type":"uint256","internalType":"uint256"},{"name":"value","type":"uint256","internalType":"uint256"},{"name":"data","type":"bytes","internalType":"bytes"}],"outputs":[],"stateMutability":"nonpayable"},{"type":"function","name":"setApprovalForAll","inputs":[{"name":"operator","type":"address","internalType":"address"},{"name":"approved","type":"bool","internalType":"bool"}],"outputs":[],"stateMutability":"nonpayable"},{"type":"function","name":"supportsInterface","inputs":[{"name":"interfaceId","type":"bytes4","internalType":"bytes4"}],"outputs":[{"name":"","type":"bool","internalType":"bool"}],"stateMutability":"view"},{"type":"function","name":"totalShares","inputs":[{"name":"","type":"uint256","internalType":"uint256"}],"outputs":[{"name":"","type":"uint256","internalType":"uint256"}],"stateMutability":"view"},{"type":"function","name":"uri","inputs":[{"name":"","type":"uint256","internalType":"uint256"}],"outputs":[{"name":"","type":"string","internalType":"string"}],"stateMutability":"view"},{"type":"event","name":"ApprovalForAll","inputs":[{"name":"account","type":"address","indexed":true,"internalType":"address"},{"name":"operator","type":"address","indexed":true,"internalType":"address"},{"name":"approved","type":"bool","indexed":false,"internalType":"bool"}],"anonymous":false},{"type":"event","name":"TransferBatch","inputs":[{"name":"operator","type":"address","indexed":true,"internalType":"address"},{"name":"from","type":"address","indexed":true,"internalType":"address"},{"name":"to","type":"address","indexed":true,"internalType":"address"},{"name":"ids","type":"uint256[]","indexed":false,"internalType":"uint256[]"},{"name":"values","type":"uint256[]","indexed":false,"internalType":"uint256[]"}],"anonymous":false},{"type":"event","name":"TransferSingle","inputs":[{"name":"operator","type":"address","indexed":true,"internalType":"address"},{"name":"from","type":"address","indexed":true,"internalType":"address"},{"name":"to","type":"address","indexed":true,"internalType":"address"},{"name":"id","type":"uint256","indexed":false,"internalType":"uint256"},{"name":"value","type":"uint256","indexed":false,"internalType":"uint256"}],"anonymous":false},{"type":"event","name":"URI","inputs":[{"name":"value","type":"string","indexed":false,"internalType":"string"},{"name":"id","type":"uint256","indexed":true,"internalType":"uint256"}],"anonymous":false},{"type":"error","name":"ERC1155InsufficientBalance","inputs":[{"name":"sender","type":"address","internalType":"address"},{"name":"balance","type":"uint256","internalType":"uint256"},{"name":"needed","type":"uint256","internalType":"uint256"},{"name":"tokenId","type":"uint256","internalType":"uint256"}]},{"type":"error","name":"ERC1155InvalidApprover","inputs":[{"name":"approver","type":"address","internalType":"address"}]},{"type":"error","name":"ERC1155InvalidArrayLength","inputs":[{"name":"idsLength","type":"uint256","internalType":"uint256"},{"name":"valuesLength","type":"uint256","internalType":"uint256"}]},{"type":"error","name":"ERC1155InvalidOperator","inputs":[{"name":"operator","type":"address","internalType":"address"}]},{"type":"error","name":"ERC1155InvalidReceiver","inputs":[{"name":"receiver","type":"address","internalType":"address"}]},{"type":"error","name":"ERC1155InvalidSender","inputs":[{"name":"sender","type":"address","internalType":"address"}]},{"type":"error","name":"ERC1155MissingApprovalForAll","inputs":[{"name":"operator","type":"address","internalType":"address"},{"name":"owner","type":"address","internalType":"address"}]}],"bytecode":{"object":"0x608060405234801561000f575f5ffd5b5060405180602001604052805f81525061002e8161003460201b60201c565b50610353565b80600290816100439190610284565b5050565b5f81519050919050565b7f4e487b71000000000000000000000000000000000000000000000000000000005f52604160045260245ffd5b7f4e487b71000000000000000000000000000000000000000000000000000000005f52602260045260245ffd5b5f60028204905060018216806100c257607f821691505b6020821081036100d5576100d461007e565b5b50919050565b5f819050815f5260205f209050919050565b5f6020601f8301049050919050565b5f82821b905092915050565b5f600883026101377fffffffffffffffffffffffffffffffffffffffffffffffffffffffffffffffff826100fc565b61014186836100fc565b95508019841693508086168417925050509392505050565b5f819050919050565b5f819050919050565b5f61018561018061017b84610159565b610162565b610159565b9050919050565b5f819050919050565b61019e8361016b565b6101b26101aa8261018c565b848454610108565b825550505050565b5f5f905090565b6101c96101ba565b6101d4818484610195565b505050565b5b818110156101f7576101ec5f826101c1565b6001810190506101da565b5050565b601f82111561023c5761020d816100db565b610216846100ed565b81016020851015610225578190505b610239610231856100ed565b8301826101d9565b50505b505050565b5f82821c905092915050565b5f61025c5f1984600802610241565b1980831691505092915050565b5f610274838361024d565b9150826002028217905092915050565b61028d82610047565b67ffffffffffffffff8111156102a6576102a5610051565b5b6102b082546100ab565b6102bb8282856101fb565b5f60209050601f8311600181146102ec575f84156102da578287015190505b6102e48582610269565b86555061034b565b601f1984166102fa866100db565b5f5b82811015610321578489015182556001820191506020850194506020810190506102fc565b8683101561033e578489015161033a601f89168261024d565b8355505b6001600288020188555050505b505050505050565b612073806103605f395ff3fe608060405234801561000f575f5ffd5b506004361061009b575f3560e01c80634e1273f4116100645780634e1273f41461017b57806364772f11146101ab578063a22cb465146101c7578063e985e9c5146101e3578063f242432a146102135761009b565b8062fdd58e1461009f57806301ffc9a7146100cf5780630e89341c146100ff57806313f2dad01461012f5780632eb2c2d61461015f575b5f5ffd5b6100b960048036038101906100b49190611489565b61022f565b6040516100c691906114d6565b60405180910390f35b6100e960048036038101906100e49190611544565b610284565b6040516100f69190611589565b60405180910390f35b610119600480360381019061011491906115a2565b610365565b604051610126919061163d565b60405180910390f35b610149600480360381019061014491906115a2565b6103f7565b60405161015691906114d6565b60405180910390f35b6101796004803603810190610174919061184d565b61040c565b005b610195600480360381019061019091906119d8565b6104b3565b6040516101a29190611b05565b60405180910390f35b6101c560048036038101906101c09190611b25565b6105bd565b005b6101e160048036038101906101dc9190611b9f565b610645565b005b6101fd60048036038101906101f89190611bdd565b61065b565b60405161020a9190611589565b60405180910390f35b61022d60048036038101906102289190611c1b565b6106e9565b005b5f5f5f8381526020019081526020015f205f8473ffffffffffffffffffffffffffffffffffffffff1673ffffffffffffffffffffffffffffffffffffffff1681526020019081526020015f2054905092915050565b5f7fd9b67a26000000000000000000000000000000000000000000000000000000007bffffffffffffffffffffffffffffffffffffffffffffffffffffffff1916827bffffffffffffffffffffffffffffffffffffffffffffffffffffffff1916148061034e57507f0e89341c000000000000000000000000000000000000000000000000000000007bffffffffffffffffffffffffffffffffffffffffffffffffffffffff1916827bffffffffffffffffffffffffffffffffffffffffffffffffffffffff1916145b8061035e575061035d82610790565b5b9050919050565b60606002805461037490611cdb565b80601f01602080910402602001604051908101604052809291908181526020018280546103a090611cdb565b80156103eb5780601f106103c2576101008083540402835291602001916103eb565b820191905f5260205f20905b8154815290600101906020018083116103ce57829003601f168201915b50505050509050919050565b6003602052805f5260405f205f915090505481565b5f6104156107f9565b90508073ffffffffffffffffffffffffffffffffffffffff168673ffffffffffffffffffffffffffffffffffffffff161415801561045a5750610458868261065b565b155b1561049e5780866040517fe237d922000000000000000000000000000000000000000000000000000000008152600401610495929190611d1a565b60405180910390fd5b6104ab8686868686610800565b505050505050565b606081518351146104ff57815183516040517f5b0599910000000000000000000000000000000000000000000000000000000081526004016104f6929190611d41565b60405180910390fd5b5f835167ffffffffffffffff81111561051b5761051a611661565b5b6040519080825280602002602001820160405280156105495781602001602082028036833780820191505090505b5090505f5f90505b84518110156105b25761058861057082876108f490919063ffffffff16565b610583838761090790919063ffffffff16565b61022f565b82828151811061059b5761059a611d68565b5b602002602001018181525050806001019050610551565b508091505092915050565b5f60035f8581526020019081526020015f205414610610576040517f08c379a000000000000000000000000000000000000000000000000000000000815260040161060790611ddf565b60405180910390fd5b8160035f8581526020019081526020015f208190555061064081848460405180602001604052805f81525061091a565b505050565b6106576106506107f9565b83836109af565b5050565b5f60015f8473ffffffffffffffffffffffffffffffffffffffff1673ffffffffffffffffffffffffffffffffffffffff1681526020019081526020015f205f8373ffffffffffffffffffffffffffffffffffffffff1673ffffffffffffffffffffffffffffffffffffffff1681526020019081526020015f205f9054906101000a900460ff16905092915050565b5f6106f26107f9565b90508073ffffffffffffffffffffffffffffffffffffffff168673ffffffffffffffffffffffffffffffffffffffff16141580156107375750610735868261065b565b155b1561077b5780866040517fe237d922000000000000000000000000000000000000000000000000000000008152600401610772929190611d1a565b60405180910390fd5b6107888686868686610b18565b505050505050565b5f7f01ffc9a7000000000000000000000000000000000000000000000000000000007bffffffffffffffffffffffffffffffffffffffffffffffffffffffff1916827bffffffffffffffffffffffffffffffffffffffffffffffffffffffff1916149050919050565b5f33905090565b5f73ffffffffffffffffffffffffffffffffffffffff168473ffffffffffffffffffffffffffffffffffffffff1603610870575f6040517f57f447ce0000000000000000000000000000000000000000000000000000000081526004016108679190611dfd565b60405180910390fd5b5f73ffffffffffffffffffffffffffffffffffffffff168573ffffffffffffffffffffffffffffffffffffffff16036108e0575f6040517f01a835140000000000000000000000000000000000000000000000000000000081526004016108d79190611dfd565b60405180910390fd5b6108ed8585858585610c1e565b5050505050565b5f60208202602084010151905092915050565b5f60208202602084010151905092915050565b5f73ffffffffffffffffffffffffffffffffffffffff168473ffffffffffffffffffffffffffffffffffffffff160361098a575f6040517f57f447ce0000000000000000000000000000000000000000000000000000000081526004016109819190611dfd565b60405180910390fd5b5f5f6109968585610cca565b915091506109a75f87848487610c1e565b505050505050565b5f73ffffffffffffffffffffffffffffffffffffffff168273ffffffffffffffffffffffffffffffffffffffff1603610a1f575f6040517fced3e100000000000000000000000000000000000000000000000000000000008152600401610a169190611dfd565b60405180910390fd5b8060015f8573ffffffffffffffffffffffffffffffffffffffff1673ffffffffffffffffffffffffffffffffffffffff1681526020019081526020015f205f8473ffffffffffffffffffffffffffffffffffffffff1673ffffffffffffffffffffffffffffffffffffffff1681526020019081526020015f205f6101000a81548160ff0219169083151502179055508173ffffffffffffffffffffffffffffffffffffffff168373ffffffffffffffffffffffffffffffffffffffff167f17307eab39ab6107e8899845ad3d59bd9653f200f220920489ca2b5937696c3183604051610b0b9190611589565b60405180910390a3505050565b5f73ffffffffffffffffffffffffffffffffffffffff168473ffffffffffffffffffffffffffffffffffffffff1603610b88575f6040517f57f447ce000000000000000000000000000000000000000000000000000000008152600401610b7f9190611dfd565b60405180910390fd5b5f73ffffffffffffffffffffffffffffffffffffffff168573ffffffffffffffffffffffffffffffffffffffff1603610bf8575f6040517f01a83514000000000000000000000000000000000000000000000000000000008152600401610bef9190611dfd565b60405180910390fd5b5f5f610c048585610cca565b91509150610c158787848487610c1e565b50505050505050565b610c2a85858585610cfa565b5f73ffffffffffffffffffffffffffffffffffffffff168473ffffffffffffffffffffffffffffffffffffffff1614610cc3575f610c666107f9565b90506001845103610cb2575f610c855f8661090790919063ffffffff16565b90505f610c9b5f8661090790919063ffffffff16565b9050610cab83898985858961108d565b5050610cc1565b610cc081878787878761123c565b5b505b5050505050565b60608060405191506001825283602083015260408201905060018152826020820152604081016040529250929050565b8051825114610d4457815181516040517f5b059991000000000000000000000000000000000000000000000000000000008152600401610d3b929190611d41565b60405180910390fd5b5f610d4d6107f9565b90505f5f90505b8351811015610f4c575f610d71828661090790919063ffffffff16565b90505f610d87838661090790919063ffffffff16565b90505f73ffffffffffffffffffffffffffffffffffffffff168873ffffffffffffffffffffffffffffffffffffffff1614610eaa575f5f5f8481526020019081526020015f205f8a73ffffffffffffffffffffffffffffffffffffffff1673ffffffffffffffffffffffffffffffffffffffff1681526020019081526020015f2054905081811015610e5657888183856040517f03dee4c5000000000000000000000000000000000000000000000000000000008152600401610e4d9493929190611e16565b60405180910390fd5b8181035f5f8581526020019081526020015f205f8b73ffffffffffffffffffffffffffffffffffffffff1673ffffffffffffffffffffffffffffffffffffffff1681526020019081526020015f2081905550505b5f73ffffffffffffffffffffffffffffffffffffffff168773ffffffffffffffffffffffffffffffffffffffff1614610f3f57805f5f8481526020019081526020015f205f8973ffffffffffffffffffffffffffffffffffffffff1673ffffffffffffffffffffffffffffffffffffffff1681526020019081526020015f205f828254610f379190611e86565b925050819055505b5050806001019050610d54565b506001835103611007575f610f6a5f8561090790919063ffffffff16565b90505f610f805f8561090790919063ffffffff16565b90508573ffffffffffffffffffffffffffffffffffffffff168773ffffffffffffffffffffffffffffffffffffffff168473ffffffffffffffffffffffffffffffffffffffff167fc3d58168c5ae7397731d063d5bbf3d657854427343f4c083240f7aacaa2d0f628585604051610ff8929190611d41565b60405180910390a45050611086565b8373ffffffffffffffffffffffffffffffffffffffff168573ffffffffffffffffffffffffffffffffffffffff168273ffffffffffffffffffffffffffffffffffffffff167f4a39dc06d4c0dbc64b70af90fd698a233a518aa5d07e595d983b8c0526c8f7fb868660405161107d929190611eb9565b60405180910390a45b5050505050565b5f8473ffffffffffffffffffffffffffffffffffffffff163b1115611234578373ffffffffffffffffffffffffffffffffffffffff1663f23a6e6187878686866040518663ffffffff1660e01b81526004016110ed959493929190611f40565b6020604051808303815f875af192505050801561112857506040513d601f19601f820116820180604052508101906111259190611fac565b60015b6111a9573d805f8114611156576040519150601f19603f3d011682016040523d82523d5f602084013e61115b565b606091505b505f8151036111a157846040517f57f447ce0000000000000000000000000000000000000000000000000000000081526004016111989190611dfd565b60405180910390fd5b805160208201fd5b63f23a6e6160e01b7bffffffffffffffffffffffffffffffffffffffffffffffffffffffff1916817bffffffffffffffffffffffffffffffffffffffffffffffffffffffff19161461123257846040517f57f447ce0000000000000000000000000000000000000000000000000000000081526004016112299190611dfd565b60405180910390fd5b505b505050505050565b5f8473ffffffffffffffffffffffffffffffffffffffff163b11156113e3578373ffffffffffffffffffffffffffffffffffffffff1663bc197c8187878686866040518663ffffffff1660e01b815260040161129c959493929190611fd7565b6020604051808303815f875af19250505080156112d757506040513d601f19601f820116820180604052508101906112d49190611fac565b60015b611358573d805f8114611305576040519150601f19603f3d011682016040523d82523d5f602084013e61130a565b606091505b505f81510361135057846040517f57f447ce0000000000000000000000000000000000000000000000000000000081526004016113479190611dfd565b60405180910390fd5b805160208201fd5b63bc197c8160e01b7bffffffffffffffffffffffffffffffffffffffffffffffffffffffff1916817bffffffffffffffffffffffffffffffffffffffffffffffffffffffff1916146113e157846040517f57f447ce0000000000000000000000000000000000000000000000000000000081526004016113d89190611dfd565b60405180910390fd5b505b505050505050565b5f604051905090565b5f5ffd5b5f5ffd5b5f73ffffffffffffffffffffffffffffffffffffffff82169050919050565b5f611425826113fc565b9050919050565b6114358161141b565b811461143f575f5ffd5b50565b5f813590506114508161142c565b92915050565b5f819050919050565b61146881611456565b8114611472575f5ffd5b50565b5f813590506114838161145f565b92915050565b5f5f6040838503121561149f5761149e6113f4565b5b5f6114ac85828601611442565b92505060206114bd85828601611475565b9150509250929050565b6114d081611456565b82525050565b5f6020820190506114e95f8301846114c7565b92915050565b5f7fffffffff0000000000000000000000000000000000000000000000000000000082169050919050565b611523816114ef565b811461152d575f5ffd5b50565b5f8135905061153e8161151a565b92915050565b5f60208284031215611559576115586113f4565b5b5f61156684828501611530565b91505092915050565b5f8115159050919050565b6115838161156f565b82525050565b5f60208201905061159c5f83018461157a565b92915050565b5f602082840312156115b7576115b66113f4565b5b5f6115c484828501611475565b91505092915050565b5f81519050919050565b5f82825260208201905092915050565b8281835e5f83830152505050565b5f601f19601f8301169050919050565b5f61160f826115cd565b61161981856115d7565b93506116298185602086016115e7565b611632816115f5565b840191505092915050565b5f6020820190508181035f8301526116558184611605565b905092915050565b5f5ffd5b7f4e487b71000000000000000000000000000000000000000000000000000000005f52604160045260245ffd5b611697826115f5565b810181811067ffffffffffffffff821117156116b6576116b5611661565b5b80604052505050565b5f6116c86113eb565b90506116d4828261168e565b919050565b5f67ffffffffffffffff8211156116f3576116f2611661565b5b602082029050602081019050919050565b5f5ffd5b5f61171a611715846116d9565b6116bf565b9050808382526020820190506020840283018581111561173d5761173c611704565b5b835b8181101561176657806117528882611475565b84526020840193505060208101905061173f565b5050509392505050565b5f82601f8301126117845761178361165d565b5b8135611794848260208601611708565b91505092915050565b5f5ffd5b5f67ffffffffffffffff8211156117bb576117ba611661565b5b6117c4826115f5565b9050602081019050919050565b828183375f83830152505050565b5f6117f16117ec846117a1565b6116bf565b90508281526020810184848401111561180d5761180c61179d565b5b6118188482856117d1565b509392505050565b5f82601f8301126118345761183361165d565b5b81356118448482602086016117df565b91505092915050565b5f5f5f5f5f60a08688031215611866576118656113f4565b5b5f61187388828901611442565b955050602061188488828901611442565b945050604086013567ffffffffffffffff8111156118a5576118a46113f8565b5b6118b188828901611770565b935050606086013567ffffffffffffffff8111156118d2576118d16113f8565b5b6118de88828901611770565b925050608086013567ffffffffffffffff8111156118ff576118fe6113f8565b5b61190b88828901611820565b9150509295509295909350565b5f67ffffffffffffffff82111561193257611931611661565b5b602082029050602081019050919050565b5f61195561195084611918565b6116bf565b9050808382526020820190506020840283018581111561197857611977611704565b5b835b818110156119a1578061198d8882611442565b84526020840193505060208101905061197a565b5050509392505050565b5f82601f8301126119bf576119be61165d565b5b81356119cf848260208601611943565b91505092915050565b5f5f604083850312156119ee576119ed6113f4565b5b5f83013567ffffffffffffffff811115611a0b57611a0a6113f8565b5b611a17858286016119ab565b925050602083013567ffffffffffffffff811115611a3857611a376113f8565b5b611a4485828601611770565b9150509250929050565b5f81519050919050565b5f82825260208201905092915050565b5f819050602082019050919050565b611a8081611456565b82525050565b5f611a918383611a77565b60208301905092915050565b5f602082019050919050565b5f611ab382611a4e565b611abd8185611a58565b9350611ac883611a68565b805f5b83811015611af8578151611adf8882611a86565b9750611aea83611a9d565b925050600181019050611acb565b5085935050505092915050565b5f6020820190508181035f830152611b1d8184611aa9565b905092915050565b5f5f5f60608486031215611b3c57611b3b6113f4565b5b5f611b4986828701611475565b9350506020611b5a86828701611475565b9250506040611b6b86828701611442565b9150509250925092565b611b7e8161156f565b8114611b88575f5ffd5b50565b5f81359050611b9981611b75565b92915050565b5f5f60408385031215611bb557611bb46113f4565b5b5f611bc285828601611442565b9250506020611bd385828601611b8b565b9150509250929050565b5f5f60408385031215611bf357611bf26113f4565b5b5f611c0085828601611442565b9250506020611c1185828601611442565b9150509250929050565b5f5f5f5f5f60a08688031215611c3457611c336113f4565b5b5f611c4188828901611442565b9550506020611c5288828901611442565b9450506040611c6388828901611475565b9350506060611c7488828901611475565b925050608086013567ffffffffffffffff811115611c9557611c946113f8565b5b611ca188828901611820565b9150509295509295909350565b7f4e487b71000000000000000000000000000000000000000000000000000000005f52602260045260245ffd5b5f6002820490506001821680611cf257607f821691505b602082108103611d0557611d04611cae565b5b50919050565b611d148161141b565b82525050565b5f604082019050611d2d5f830185611d0b565b611d3a6020830184611d0b565b9392505050565b5f604082019050611d545f8301856114c7565b611d6160208301846114c7565b9392505050565b7f4e487b71000000000000000000000000000000000000000000000000000000005f52603260045260245ffd5b7f416c7265616479206672616374696f6e616c697a6564000000000000000000005f82015250565b5f611dc96016836115d7565b9150611dd482611d95565b602082019050919050565b5f6020820190508181035f830152611df681611dbd565b9050919050565b5f602082019050611e105f830184611d0b565b92915050565b5f608082019050611e295f830187611d0b565b611e3660208301866114c7565b611e4360408301856114c7565b611e5060608301846114c7565b95945050505050565b7f4e487b71000000000000000000000000000000000000000000000000000000005f52601160045260245ffd5b5f611e9082611456565b9150611e9b83611456565b9250828201905080821115611eb357611eb2611e59565b5b92915050565b5f6040820190508181035f830152611ed18185611aa9565b90508181036020830152611ee58184611aa9565b90509392505050565b5f81519050919050565b5f82825260208201905092915050565b5f611f1282611eee565b611f1c8185611ef8565b9350611f2c8185602086016115e7565b611f35816115f5565b840191505092915050565b5f60a082019050611f535f830188611d0b565b611f606020830187611d0b565b611f6d60408301866114c7565b611f7a60608301856114c7565b8181036080830152611f8c8184611f08565b90509695505050505050565b5f81519050611fa68161151a565b92915050565b5f60208284031215611fc157611fc06113f4565b5b5f611fce84828501611f98565b91505092915050565b5f60a082019050611fea5f830188611d0b565b611ff76020830187611d0b565b81810360408301526120098186611aa9565b9050818103606083015261201d8185611aa9565b905081810360808301526120318184611f08565b9050969550505050505056fea2646970667358221220ebc42dfabbc779e9286e2230e3edf0a2f35b42d46a66411f716b90bdfc90394a64736f6c634300081e0033","linkReferences":{}},"methodIdentifiers":{"balanceOf(address,uint256)":"00fdd58e","balanceOfBatch(address[],uint256[])":"4e1273f4","isApprovedForAll(address,address)":"e985e9c5","mintFractions(uint256,uint256,address)":"64772f11","safeBatchTransferFrom(address,address,uint256[],uint256[],bytes)":"2eb2c2d6","safeTransferFrom(address,address,uint256,uint256,bytes)":"f242432a","setApprovalForAll(address,bool)":"a22cb465","supportsInterface(bytes4)":"01ffc9a7","totalShares(uint256)":"13f2dad0","uri(uint256)":"0e89341c"},"id":43}