{"abi":[{"type":"constructor","inputs":[],"stateMutability":"nonpayable"},{"type":"function","name":"addIssuer","inputs":[{"name":"_issuer","type":"address","internalType":"address"}],"outputs":[],"stateMutability":"nonpayable"},{"type":"function","name":"addManager","inputs":[{"name":"_manager","type":"address","internalType":"address"}],"outputs":[],"stateMutability":"nonpayable"},{"type":"function","name":"isIssuer","inputs":[{"name":"","type":"address","internalType":"address"}],"outputs":[{"name":"","type":"bool","internalType":"bool"}],"stateMutability":"view"},{"type":"function","name":"isManager","inputs":[{"name":"","type":"address","internalType":"address"}],"outputs":[{"name":"","type":"bool","internalType":"bool"}],"stateMutability":"view"},{"type":"function","name":"isManagerForToken","inputs":[{"name":"_manager","type":"address","internalType":"address"},{"name":"_tokenId","type":"uint256","internalType":"uint256"}],"outputs":[{"name":"","type":"bool","internalType":"bool"}],"stateMutability":"view"},{"type":"function","name":"managerForToken","inputs":[{"name":"","type":"address","internalType":"address"},{"name":"","type":"uint256","internalType":"uint256"}],"outputs":[{"name":"","type":"bool","internalType":"bool"}],"stateMutability":"view"},{"type":"function","name":"marketplacePaused","inputs":[],"outputs":[{"name":"","type":"bool","internalType":"bool"}],"stateMutability":"view"},{"type":"function","name":"owner","inputs":[],"outputs":[{"name":"","type":"address","internalType":"address"}],"stateMutability":"view"},{"type":"function","name":"pauseMarketplace","inputs":[{"name":"_pause","type":"bool","internalType":"bool"}],"outputs":[],"stateMutability":"nonpayable"},{"type":"function","name":"removeIssuer","inputs":[{"name":"_issuer","type":"address","internalType":"address"}],"outputs":[],"stateMutability":"nonpayable"},{"type":"function","name":"removeManager","inputs":[{"name":"_manager","type":"address","internalType":"address"}],"outputs":[],"stateMutability":"nonpayable"},{"type":"function","name":"setManagerForToken","inputs":[{"name":"_manager","type":"address","internalType":"address"},{"name":"_tokenId","type":"uint256","internalType":"uint256"},{"name":"_status","type":"bool","internalType":"bool"}],"outputs":[],"stateMutability":"nonpayable"},{"type":"function","name":"transferOwnership","inputs":[{"name":"_newOwner","type":"address","internalType":"address"}],"outputs":[],"stateMutability":"nonpayable"},{"type":"event","name":"IssuerAdded","inputs":[{"name":"issuer","type":"address","indexed":true,"internalType":"address"}],"anonymous":false},{"type":"event","name":"IssuerRemoved","inputs":[{"name":"issuer","type":"address","indexed":true,"internalType":"address"}],"anonymous":false},{"type":"event","name":"ManagerAdded","inputs":[{"name":"manager","type":"address","indexed":true,"internalType":"address"}],"anonymous":false},{"type":"event","name":"ManagerRemoved","inputs":[{"name":"manager","type":"address","indexed":true,"internalType":"address"}],"anonymous":false},{"type":"event","name":"MarketplacePaused","inputs":[{"name":"paused","type":"bool","indexed":false,"internalType":"bool"}],"anonymous":false},{"type":"event","name":"OwnershipTransferred","inputs":[{"name":"previousOwner","type":"address","indexed":true,"internalType":"address"},{"name":"newOwner","type":"address","indexed":true,"internalType":"address"}],"anonymous":false},{"type":"event","name":"TokenManagerSet","inputs":[{"name":"manager","type":"address","indexed":true,"internalType":"address"},{"name":"tokenId","type":"uint256","indexed":true,"internalType":"uint256"},{"name":"status","type":"bool","indexed":false,"internalType":"bool"}],"anonymous":false}],"bytecode":{"object":"0x608060405234801561000f575f5ffd5b50335f5f6101000a81548173ffffffffffffffffffffffffffffffffffffffff021916908373ffffffffffffffffffffffffffffffffffffffff1602179055506001805f3373ffffffffffffffffffffffffffffffffffffffff1673ffffffffffffffffffffffffffffffffffffffff1681526020019081526020015f205f6101000a81548160ff021916908315150217905550600160025f3373ffffffffffffffffffffffffffffffffffffffff1673ffffffffffffffffffffffffffffffffffffffff1681526020019081526020015f205f6101000a81548160ff0219169083151502179055503373ffffffffffffffffffffffffffffffffffffffff167f05e7c881d716bee8cb7ed92293133ba156704252439e5c502c277448f04e20c260405160405180910390a23373ffffffffffffffffffffffffffffffffffffffff167f3b4a40cccf2058c593542587329dd385be4f0b588db5471fbd9598e56dd7093a60405160405180910390a26115598061018b5f395ff3fe608060405234801561000f575f5ffd5b50600436106100cd575f3560e01c80638da5cb5b1161008a578063ad552de811610064578063ad552de8146101f7578063ec8b907114610227578063f2fde38b14610245578063f3ae241514610261576100cd565b80638da5cb5b146101a15780638ee94e3a146101bf578063ac18de43146101db576100cd565b80631888f727146100d157806320694db0146100ed5780632d06177a1461010957806347bc7093146101255780637bb49ed414610141578063877b9a6714610171575b5f5ffd5b6100eb60048036038101906100e691906110e2565b610291565b005b61010760048036038101906101029190611167565b610372565b005b610123600480360381019061011e9190611167565b610592565b005b61013f600480360381019061013a9190611167565b6107b3565b005b61015b600480360381019061015691906111c5565b6109d2565b6040516101689190611212565b60405180910390f35b61018b60048036038101906101869190611167565b610a85565b6040516101989190611212565b60405180910390f35b6101a9610aa2565b6040516101b6919061123a565b60405180910390f35b6101d960048036038101906101d49190611253565b610ac6565b005b6101f560048036038101906101f09190611167565b610c79565b005b610211600480360381019061020c91906111c5565b610e98565b60405161021e9190611212565b60405180910390f35b61022f610ec2565b60405161023c9190611212565b60405180910390f35b61025f600480360381019061025a9190611167565b610ed4565b005b61027b60048036038101906102769190611167565b61108c565b6040516102889190611212565b60405180910390f35b5f5f9054906101000a900473ffffffffffffffffffffffffffffffffffffffff1673ffffffffffffffffffffffffffffffffffffffff163373ffffffffffffffffffffffffffffffffffffffff161461031f576040517f08c379a0000000000000000000000000000000000000000000000000000000008152600401610316906112fd565b60405180910390fd5b8060045f6101000a81548160ff0219169083151502179055507f2d8cb32b79ced32c38fb4a61d8482c40627602feb2cc34b50d9b55eea376d88c816040516103679190611212565b60405180910390a150565b5f5f9054906101000a900473ffffffffffffffffffffffffffffffffffffffff1673ffffffffffffffffffffffffffffffffffffffff163373ffffffffffffffffffffffffffffffffffffffff1614610400576040517f08c379a00000000000000000000000000000000000000000000000000000000081526004016103f7906112fd565b60405180910390fd5b5f73ffffffffffffffffffffffffffffffffffffffff168173ffffffffffffffffffffffffffffffffffffffff160361046e576040517f08c379a000000000000000000000000000000000000000000000000000000000815260040161046590611365565b60405180910390fd5b60015f8273ffffffffffffffffffffffffffffffffffffffff1673ffffffffffffffffffffffffffffffffffffffff1681526020019081526020015f205f9054906101000a900460ff16156104f8576040517f08c379a00000000000000000000000000000000000000000000000000000000081526004016104ef906113cd565b60405180910390fd5b6001805f8373ffffffffffffffffffffffffffffffffffffffff1673ffffffffffffffffffffffffffffffffffffffff1681526020019081526020015f205f6101000a81548160ff0219169083151502179055508073ffffffffffffffffffffffffffffffffffffffff167f05e7c881d716bee8cb7ed92293133ba156704252439e5c502c277448f04e20c260405160405180910390a250565b5f5f9054906101000a900473ffffffffffffffffffffffffffffffffffffffff1673ffffffffffffffffffffffffffffffffffffffff163373ffffffffffffffffffffffffffffffffffffffff1614610620576040517f08c379a0000000000000000000000000000000000000000000000000000000008152600401610617906112fd565b60405180910390fd5b5f73ffffffffffffffffffffffffffffffffffffffff168173ffffffffffffffffffffffffffffffffffffffff160361068e576040517f08c379a000000000000000000000000000000000000000000000000000000000815260040161068590611365565b60405180910390fd5b60025f8273ffffffffffffffffffffffffffffffffffffffff1673ffffffffffffffffffffffffffffffffffffffff1681526020019081526020015f205f9054906101000a900460ff1615610718576040517f08c379a000000000000000000000000000000000000000000000000000000000815260040161070f90611435565b60405180910390fd5b600160025f8373ffffffffffffffffffffffffffffffffffffffff1673ffffffffffffffffffffffffffffffffffffffff1681526020019081526020015f205f6101000a81548160ff0219169083151502179055508073ffffffffffffffffffffffffffffffffffffffff167f3b4a40cccf2058c593542587329dd385be4f0b588db5471fbd9598e56dd7093a60405160405180910390a250565b5f5f9054906101000a900473ffffffffffffffffffffffffffffffffffffffff1673ffffffffffffffffffffffffffffffffffffffff163373ffffffffffffffffffffffffffffffffffffffff1614610841576040517f08c379a0000000000000000000000000000000000000000000000000000000008152600401610838906112fd565b60405180910390fd5b5f73ffffffffffffffffffffffffffffffffffffffff168173ffffffffffffffffffffffffffffffffffffffff16036108af576040517f08c379a00000000000000000000000000000000000000000000000000000000081526004016108a690611365565b60405180910390fd5b60015f8273ffffffffffffffffffffffffffffffffffffffff1673ffffffffffffffffffffffffffffffffffffffff1681526020019081526020015f205f9054906101000a900460ff16610938576040517f08c379a000000000000000000000000000000000000000000000000000000000815260040161092f9061149d565b60405180910390fd5b5f60015f8373ffffffffffffffffffffffffffffffffffffffff1673ffffffffffffffffffffffffffffffffffffffff1681526020019081526020015f205f6101000a81548160ff0219169083151502179055508073ffffffffffffffffffffffffffffffffffffffff167faf66545c919a3be306ee446d8f42a9558b5b022620df880517bc9593ec0f2d5260405160405180910390a250565b5f60035f8473ffffffffffffffffffffffffffffffffffffffff1673ffffffffffffffffffffffffffffffffffffffff1681526020019081526020015f205f8381526020019081526020015f205f9054906101000a900460ff1680610a7d575060025f8473ffffffffffffffffffffffffffffffffffffffff1673ffffffffffffffffffffffffffffffffffffffff1681526020019081526020015f205f9054906101000a900460ff165b905092915050565b6001602052805f5260405f205f915054906101000a900460ff1681565b5f5f9054906101000a900473ffffffffffffffffffffffffffffffffffffffff1681565b5f5f9054906101000a900473ffffffffffffffffffffffffffffffffffffffff1673ffffffffffffffffffffffffffffffffffffffff163373ffffffffffffffffffffffffffffffffffffffff1614610b54576040517f08c379a0000000000000000000000000000000000000000000000000000000008152600401610b4b906112fd565b60405180910390fd5b5f73ffffffffffffffffffffffffffffffffffffffff168373ffffffffffffffffffffffffffffffffffffffff1603610bc2576040517f08c379a0000000000000000000000000000000000000000000000000000000008152600401610bb990611365565b60405180910390fd5b8060035f8573ffffffffffffffffffffffffffffffffffffffff1673ffffffffffffffffffffffffffffffffffffffff1681526020019081526020015f205f8481526020019081526020015f205f6101000a81548160ff021916908315150217905550818373ffffffffffffffffffffffffffffffffffffffff167f7c3ad21901c867a8bc25a207217b4f9e300beca327ba32a871fbfb115e6fee2183604051610c6c9190611212565b60405180910390a3505050565b5f5f9054906101000a900473ffffffffffffffffffffffffffffffffffffffff1673ffffffffffffffffffffffffffffffffffffffff163373ffffffffffffffffffffffffffffffffffffffff1614610d07576040517f08c379a0000000000000000000000000000000000000000000000000000000008152600401610cfe906112fd565b60405180910390fd5b5f73ffffffffffffffffffffffffffffffffffffffff168173ffffffffffffffffffffffffffffffffffffffff1603610d75576040517f08c379a0000000000000000000000000000000000000000000000000000000008152600401610d6c90611365565b60405180910390fd5b60025f8273ffffffffffffffffffffffffffffffffffffffff1673ffffffffffffffffffffffffffffffffffffffff1681526020019081526020015f205f9054906101000a900460ff16610dfe576040517f08c379a0000000000000000000000000000000000000000000000000000000008152600401610df590611505565b60405180910390fd5b5f60025f8373ffffffffffffffffffffffffffffffffffffffff1673ffffffffffffffffffffffffffffffffffffffff1681526020019081526020015f205f6101000a81548160ff0219169083151502179055508073ffffffffffffffffffffffffffffffffffffffff167fef69f7d97228658c92417be1b16b19058315de71fecb435d07b7d23728b6bd3160405160405180910390a250565b6003602052815f5260405f20602052805f5260405f205f915091509054906101000a900460ff1681565b60045f9054906101000a900460ff1681565b5f5f9054906101000a900473ffffffffffffffffffffffffffffffffffffffff1673ffffffffffffffffffffffffffffffffffffffff163373ffffffffffffffffffffffffffffffffffffffff1614610f62576040517f08c379a0000000000000000000000000000000000000000000000000000000008152600401610f59906112fd565b60405180910390fd5b5f73ffffffffffffffffffffffffffffffffffffffff168173ffffffffffffffffffffffffffffffffffffffff1603610fd0576040517f08c379a0000000000000000000000000000000000000000000000000000000008152600401610fc790611365565b60405180910390fd5b8073ffffffffffffffffffffffffffffffffffffffff165f5f9054906101000a900473ffffffffffffffffffffffffffffffffffffffff1673ffffffffffffffffffffffffffffffffffffffff167f8be0079c531659141344cd1fd0a4f28419497f9722a3daafe3b4186f6b6457e060405160405180910390a3805f5f6101000a81548173ffffffffffffffffffffffffffffffffffffffff021916908373ffffffffffffffffffffffffffffffffffffffff16021790555050565b6002602052805f5260405f205f915054906101000a900460ff1681565b5f5ffd5b5f8115159050919050565b6110c1816110ad565b81146110cb575f5ffd5b50565b5f813590506110dc816110b8565b92915050565b5f602082840312156110f7576110f66110a9565b5b5f611104848285016110ce565b91505092915050565b5f73ffffffffffffffffffffffffffffffffffffffff82169050919050565b5f6111368261110d565b9050919050565b6111468161112c565b8114611150575f5ffd5b50565b5f813590506111618161113d565b92915050565b5f6020828403121561117c5761117b6110a9565b5b5f61118984828501611153565b91505092915050565b5f819050919050565b6111a481611192565b81146111ae575f5ffd5b50565b5f813590506111bf8161119b565b92915050565b5f5f604083850312156111db576111da6110a9565b5b5f6111e885828601611153565b92505060206111f9858286016111b1565b9150509250929050565b61120c816110ad565b82525050565b5f6020820190506112255f830184611203565b92915050565b6112348161112c565b82525050565b5f60208201905061124d5f83018461122b565b92915050565b5f5f5f6060848603121561126a576112696110a9565b5b5f61127786828701611153565b9350506020611288868287016111b1565b9250506040611299868287016110ce565b9150509250925092565b5f82825260208201905092915050565b7f4e6f742061646d696e00000000000000000000000000000000000000000000005f82015250565b5f6112e76009836112a3565b91506112f2826112b3565b602082019050919050565b5f6020820190508181035f830152611314816112db565b9050919050565b7f496e76616c6964206164647265737300000000000000000000000000000000005f82015250565b5f61134f600f836112a3565b915061135a8261131b565b602082019050919050565b5f6020820190508181035f83015261137c81611343565b9050919050565b7f416c7265616479206973737565720000000000000000000000000000000000005f82015250565b5f6113b7600e836112a3565b91506113c282611383565b602082019050919050565b5f6020820190508181035f8301526113e4816113ab565b9050919050565b7f416c7265616479206d616e6167657200000000000000000000000000000000005f82015250565b5f61141f600f836112a3565b915061142a826113eb565b602082019050919050565b5f6020820190508181035f83015261144c81611413565b9050919050565b7f4e6f7420616e20697373756572000000000000000000000000000000000000005f82015250565b5f611487600d836112a3565b915061149282611453565b602082019050919050565b5f6020820190508181035f8301526114b48161147b565b9050919050565b7f4e6f742061206d616e61676572000000000000000000000000000000000000005f82015250565b5f6114ef600d836112a3565b91506114fa826114bb565b602082019050919050565b5f6020820190508181035f83015261151c816114e3565b905091905056fea26469706673582212202dfcce5c4e2b894a3944af2973d2ec593fd8ba2904f0f0987f51b0fa78d298e164736f6c634300081e0033","linkReferences":{}},"methodIdentifiers":{"addIssuer(address)":"20694db0","addManager(address)":"2d06177a","isIssuer(address)":"877b9a67","isManager(address)":"f3ae2415","isManagerForToken(address,uint256)":"7bb49ed4","managerForToken(address,uint256)":"ad552de8","marketplacePaused()":"ec8b9071","owner()":"8da5cb5b","pauseMarketplace(bool)":"1888f727","removeIssuer(address)":"47bc7093","removeManager(address)":"ac18de43","setManagerForToken(address,uint256,bool)":"8ee94e3a","transferOwnership(address)":"f2fde38b"},"id":40}