{"abi":[{"type":"constructor","inputs":[{"name":"_admin","type":"address","internalType":"address"}],"stateMutability":"nonpayable"},{"type":"function","name":"admin","inputs":[],"outputs":[{"name":"","type":"address","internalType":"contract IAdmin"}],"stateMutability":"view"},{"type":"function","name":"approve","inputs":[{"name":"to","type":"address","internalType":"address"},{"name":"tokenId","type":"uint256","internalType":"uint256"}],"outputs":[],"stateMutability":"nonpayable"},{"type":"function","name":"assetCount","inputs":[],"outputs":[{"name":"","type":"uint256","internalType":"uint256"}],"stateMutability":"view"},{"type":"function","name":"assetIPFS","inputs":[{"name":"","type":"uint256","internalType":"uint256"}],"outputs":[{"name":"","type":"string","internalType":"string"}],"stateMutability":"view"},{"type":"function","name":"balanceOf","inputs":[{"name":"owner","type":"address","internalType":"address"}],"outputs":[{"name":"","type":"uint256","internalType":"uint256"}],"stateMutability":"view"},{"type":"function","name":"createAsset","inputs":[{"name":"ipfsHash","type":"string","internalType":"string"}],"outputs":[],"stateMutability":"nonpayable"},{"type":"function","name":"getApproved","inputs":[{"name":"tokenId","type":"uint256","internalType":"uint256"}],"outputs":[{"name":"","type":"address","internalType":"address"}],"stateMutability":"view"},{"type":"function","name":"isApprovedForAll","inputs":[{"name":"owner","type":"address","internalType":"address"},{"name":"operator","type":"address","internalType":"address"}],"outputs":[{"name":"","type":"bool","internalType":"bool"}],"stateMutability":"view"},{"type":"function","name":"name","inputs":[],"outputs":[{"name":"","type":"string","internalType":"string"}],"stateMutability":"view"},{"type":"function","name":"ownerOf","inputs":[{"name":"tokenId","type":"uint256","internalType":"uint256"}],"outputs":[{"name":"","type":"address","internalType":"address"}],"stateMutability":"view"},{"type":"function","name":"safeTransferFrom","inputs":[{"name":"from","type":"address","internalType":"address"},{"name":"to","type":"address","internalType":"address"},{"name":"tokenId","type":"uint256","internalType":"uint256"}],"outputs":[],"stateMutability":"nonpayable"},{"type":"function","name":"safeTransferFrom","inputs":[{"name":"from","type":"address","internalType":"address"},{"name":"to","type":"address","internalType":"address"},{"name":"tokenId","type":"uint256","internalType":"uint256"},{"name":"data","type":"bytes","internalType":"bytes"}],"outputs":[],"stateMutability":"nonpayable"},{"type":"function","name":"setApprovalForAll","inputs":[{"name":"operator","type":"address","internalType":"address"},{"name":"approved","type":"bool","internalType":"bool"}],"outputs":[],"stateMutability":"nonpayable"},{"type":"function","name":"supportsInterface","inputs":[{"name":"interfaceId","type":"bytes4","internalType":"bytes4"}],"outputs":[{"name":"","type":"bool","internalType":"bool"}],"stateMutability":"view"},{"type":"function","name":"symbol","inputs":[],"outputs":[{"name":"","type":"string","internalType":"string"}],"stateMutability":"view"},{"type":"function","name":"tokenURI","inputs":[{"name":"tokenId","type":"uint256","internalType":"uint256"}],"outputs":[{"name":"","type":"string","internalType":"string"}],"stateMutability":"view"},{"type":"function","name":"transferFrom","inputs":[{"name":"from","type":"address","internalType":"address"},{"name":"to","type":"address","internalType":"address"},{"name":"tokenId","type":"uint256","internalType":"uint256"}],"outputs":[],"stateMutability":"nonpayable"},{"type":"event","name":"Approval","inputs":[{"name":"owner","type":"address","indexed":true,"internalType":"address"},{"name":"approved","type":"address","indexed":true,"internalType":"address"},{"name":"tokenId","type":"uint256","indexed":true,"internalType":"uint256"}],"anonymous":false},{"type":"event","name":"ApprovalForAll","inputs":[{"name":"owner","type":"address","indexed":true,"internalType":"address"},{"name":"operator","type":"address","indexed":true,"internalType":"address"},{"name":"approved","type":"bool","indexed":false,"internalType":"bool"}],"anonymous":false},{"type":"event","name":"Transfer","inputs":[{"name":"from","type":"address","indexed":true,"internalType":"address"},{"name":"to","type":"address","indexed":true,"internalType":"address"},{"name":"tokenId","type":"uint256","indexed":true,"internalType":"uint256"}],"anonymous":false},{"type":"error","name":"ERC721IncorrectOwner","inputs":[{"name":"sender","type":"address","internalType":"address"},{"name":"tokenId","type":"uint256","internalType":"uint256"},{"name":"owner","type":"address","internalType":"address"}]},{"type":"error","name":"ERC721InsufficientApproval","inputs":[{"name":"operator","type":"address","internalType":"address"},{"name":"tokenId","type":"uint256","internalType":"uint256"}]},{"type":"error","name":"ERC721InvalidApprover","inputs":[{"name":"approver","type":"address","internalType":"address"}]},{"type":"error","name":"ERC721InvalidOperator","inputs":[{"name":"operator","type":"address","internalType":"address"}]},{"type":"error","name":"ERC721InvalidOwner","inputs":[{"name":"owner","type":"address","internalType":"address"}]},{"type":"error","name":"ERC721InvalidReceiver","inputs":[{"name":"receiver","type":"address","internalType":"address"}]},{"type":"error","name":"ERC721InvalidSender","inputs":[{"name":"sender","type":"address","internalType":"address"}]},{"type":"error","name":"ERC721NonexistentToken","inputs":[{"name":"tokenId","type":"uint256","internalType":"uint256"}]}],"bytecode":{"object":"0x608060405234801561000f575f5ffd5b506040516128e23803806128e283398181016040528101906100319190610162565b6040518060400160405280600981526020017f52574120417373657400000000000000000000000000000000000000000000008152506040518060400160405280600381526020017f5257410000000000000000000000000000000000000000000000000000000000815250815f90816100ab91906103ca565b5080600190816100bb91906103ca565b5050508060085f6101000a81548173ffffffffffffffffffffffffffffffffffffffff021916908373ffffffffffffffffffffffffffffffffffffffff16021790555050610499565b5f5ffd5b5f73ffffffffffffffffffffffffffffffffffffffff82169050919050565b5f61013182610108565b9050919050565b61014181610127565b811461014b575f5ffd5b50565b5f8151905061015c81610138565b92915050565b5f6020828403121561017757610176610104565b5b5f6101848482850161014e565b91505092915050565b5f81519050919050565b7f4e487b71000000000000000000000000000000000000000000000000000000005f52604160045260245ffd5b7f4e487b71000000000000000000000000000000000000000000000000000000005f52602260045260245ffd5b5f600282049050600182168061020857607f821691505b60208210810361021b5761021a6101c4565b5b50919050565b5f819050815f5260205f209050919050565b5f6020601f8301049050919050565b5f82821b905092915050565b5f6008830261027d7fffffffffffffffffffffffffffffffffffffffffffffffffffffffffffffffff82610242565b6102878683610242565b95508019841693508086168417925050509392505050565b5f819050919050565b5f819050919050565b5f6102cb6102c66102c18461029f565b6102a8565b61029f565b9050919050565b5f819050919050565b6102e4836102b1565b6102f86102f0826102d2565b84845461024e565b825550505050565b5f5f905090565b61030f610300565b61031a8184846102db565b505050565b5b8181101561033d576103325f82610307565b600181019050610320565b5050565b601f8211156103825761035381610221565b61035c84610233565b8101602085101561036b578190505b61037f61037785610233565b83018261031f565b50505b505050565b5f82821c905092915050565b5f6103a25f1984600802610387565b1980831691505092915050565b5f6103ba8383610393565b9150826002028217905092915050565b6103d38261018d565b67ffffffffffffffff8111156103ec576103eb610197565b5b6103f682546101f1565b610401828285610341565b5f60209050601f831160018114610432575f8415610420578287015190505b61042a85826103af565b865550610491565b601f19841661044086610221565b5f5b8281101561046757848901518255600182019150602085019450602081019050610442565b868310156104845784890151610480601f891682610393565b8355505b6001600288020188555050505b505050505050565b61243c806104a65f395ff3fe608060405234801561000f575f5ffd5b5060043610610109575f3560e01c806370a08231116100a0578063b88d4fde1161006f578063b88d4fde146102c5578063c87b56dd146102e1578063e985e9c514610311578063eafe7a7414610341578063f851a4401461035f57610109565b806370a082311461022b57806395d89b411461025b57806399b2a77114610279578063a22cb465146102a957610109565b806323b872dd116100dc57806323b872dd146101a757806342842e0e146101c357806355b1f24e146101df5780636352211e146101fb57610109565b806301ffc9a71461010d57806306fdde031461013d578063081812fc1461015b578063095ea7b31461018b575b5f5ffd5b6101276004803603810190610122919061180d565b61037d565b6040516101349190611852565b60405180910390f35b61014561045e565b60405161015291906118db565b60405180910390f35b6101756004803603810190610170919061192e565b6104ed565b6040516101829190611998565b60405180910390f35b6101a560048036038101906101a091906119db565b610508565b005b6101c160048036038101906101bc9190611a19565b61051e565b005b6101dd60048036038101906101d89190611a19565b61061d565b005b6101f960048036038101906101f49190611b95565b61063c565b005b6102156004803603810190610210919061192e565b61075b565b6040516102229190611998565b60405180910390f35b61024560048036038101906102409190611bdc565b61076c565b6040516102529190611c16565b60405180910390f35b610263610822565b60405161027091906118db565b60405180910390f35b610293600480360381019061028e919061192e565b6108b2565b6040516102a091906118db565b60405180910390f35b6102c360048036038101906102be9190611c59565b61094d565b005b6102df60048036038101906102da9190611d35565b610963565b005b6102fb60048036038101906102f6919061192e565b610988565b60405161030891906118db565b60405180910390f35b61032b60048036038101906103269190611db5565b6109ee565b6040516103389190611852565b60405180910390f35b610349610a7c565b6040516103569190611c16565b60405180910390f35b610367610a82565b6040516103749190611e4e565b60405180910390f35b5f7f80ac58cd000000000000000000000000000000000000000000000000000000007bffffffffffffffffffffffffffffffffffffffffffffffffffffffff1916827bffffffffffffffffffffffffffffffffffffffffffffffffffffffff1916148061044757507f5b5e139f000000000000000000000000000000000000000000000000000000007bffffffffffffffffffffffffffffffffffffffffffffffffffffffff1916827bffffffffffffffffffffffffffffffffffffffffffffffffffffffff1916145b80610457575061045682610aa7565b5b9050919050565b60605f805461046c90611e94565b80601f016020809104026020016040519081016040528092919081815260200182805461049890611e94565b80156104e35780601f106104ba576101008083540402835291602001916104e3565b820191905f5260205f20905b8154815290600101906020018083116104c657829003601f168201915b5050505050905090565b5f6104f782610b10565b5061050182610b96565b9050919050565b61051a8282610515610bcf565b610bd6565b5050565b5f73ffffffffffffffffffffffffffffffffffffffff168273ffffffffffffffffffffffffffffffffffffffff160361058e575f6040517f64a0ae920000000000000000000000000000000000000000000000000000000081526004016105859190611998565b60405180910390fd5b5f6105a1838361059c610bcf565b610be8565b90508373ffffffffffffffffffffffffffffffffffffffff168173ffffffffffffffffffffffffffffffffffffffff1614610617578382826040517f64283d7b00000000000000000000000000000000000000000000000000000000815260040161060e93929190611ec4565b60405180910390fd5b50505050565b61063783838360405180602001604052805f815250610963565b505050565b60085f9054906101000a900473ffffffffffffffffffffffffffffffffffffffff1673ffffffffffffffffffffffffffffffffffffffff1663877b9a67336040518263ffffffff1660e01b81526004016106969190611998565b602060405180830381865afa1580156106b1573d5f5f3e3d5ffd5b505050506040513d601f19601f820116820180604052508101906106d59190611f0d565b610714576040517f08c379a000000000000000000000000000000000000000000000000000000000815260040161070b90611f82565b60405180910390fd5b60065f81548092919061072690611fcd565b919050555061073733600654610df3565b8060075f60065481526020019081526020015f20908161075791906121ab565b5050565b5f61076582610b10565b9050919050565b5f5f73ffffffffffffffffffffffffffffffffffffffff168273ffffffffffffffffffffffffffffffffffffffff16036107dd575f6040517f89c62b640000000000000000000000000000000000000000000000000000000081526004016107d49190611998565b60405180910390fd5b60035f8373ffffffffffffffffffffffffffffffffffffffff1673ffffffffffffffffffffffffffffffffffffffff1681526020019081526020015f20549050919050565b60606001805461083190611e94565b80601f016020809104026020016040519081016040528092919081815260200182805461085d90611e94565b80156108a85780601f1061087f576101008083540402835291602001916108a8565b820191905f5260205f20905b81548152906001019060200180831161088b57829003601f168201915b5050505050905090565b6007602052805f5260405f205f9150905080546108ce90611e94565b80601f01602080910402602001604051908101604052809291908181526020018280546108fa90611e94565b80156109455780601f1061091c57610100808354040283529160200191610945565b820191905f5260205f20905b81548152906001019060200180831161092857829003601f168201915b505050505081565b61095f610958610bcf565b8383610ee6565b5050565b61096e84848461051e565b610982610979610bcf565b8585858561104f565b50505050565b606061099382610b10565b505f61099d6111fb565b90505f8151116109bb5760405180602001604052805f8152506109e6565b806109c584611211565b6040516020016109d69291906122b4565b6040516020818303038152906040525b915050919050565b5f60055f8473ffffffffffffffffffffffffffffffffffffffff1673ffffffffffffffffffffffffffffffffffffffff1681526020019081526020015f205f8373ffffffffffffffffffffffffffffffffffffffff1673ffffffffffffffffffffffffffffffffffffffff1681526020019081526020015f205f9054906101000a900460ff16905092915050565b60065481565b60085f9054906101000a900473ffffffffffffffffffffffffffffffffffffffff1681565b5f7f01ffc9a7000000000000000000000000000000000000000000000000000000007bffffffffffffffffffffffffffffffffffffffffffffffffffffffff1916827bffffffffffffffffffffffffffffffffffffffffffffffffffffffff1916149050919050565b5f5f610b1b836112db565b90505f73ffffffffffffffffffffffffffffffffffffffff168173ffffffffffffffffffffffffffffffffffffffff1603610b8d57826040517f7e273289000000000000000000000000000000000000000000000000000000008152600401610b849190611c16565b60405180910390fd5b80915050919050565b5f60045f8381526020019081526020015f205f9054906101000a900473ffffffffffffffffffffffffffffffffffffffff169050919050565b5f33905090565b610be38383836001611314565b505050565b5f5f610bf3846112db565b90505f73ffffffffffffffffffffffffffffffffffffffff168373ffffffffffffffffffffffffffffffffffffffff1614610c3457610c338184866114d3565b5b5f73ffffffffffffffffffffffffffffffffffffffff168173ffffffffffffffffffffffffffffffffffffffff1614610cbf57610c735f855f5f611314565b600160035f8373ffffffffffffffffffffffffffffffffffffffff1673ffffffffffffffffffffffffffffffffffffffff1681526020019081526020015f205f82825403925050819055505b5f73ffffffffffffffffffffffffffffffffffffffff168573ffffffffffffffffffffffffffffffffffffffff1614610d3e57600160035f8773ffffffffffffffffffffffffffffffffffffffff1673ffffffffffffffffffffffffffffffffffffffff1681526020019081526020015f205f82825401925050819055505b8460025f8681526020019081526020015f205f6101000a81548173ffffffffffffffffffffffffffffffffffffffff021916908373ffffffffffffffffffffffffffffffffffffffff160217905550838573ffffffffffffffffffffffffffffffffffffffff168273ffffffffffffffffffffffffffffffffffffffff167fddf252ad1be2c89b69c2b068fc378daa952ba7f163c4a11628f55a4df523b3ef60405160405180910390a4809150509392505050565b5f73ffffffffffffffffffffffffffffffffffffffff168273ffffffffffffffffffffffffffffffffffffffff1603610e63575f6040517f64a0ae92000000000000000000000000000000000000000000000000000000008152600401610e5a9190611998565b60405180910390fd5b5f610e6f83835f610be8565b90505f73ffffffffffffffffffffffffffffffffffffffff168173ffffffffffffffffffffffffffffffffffffffff1614610ee1575f6040517f73c6ac6e000000000000000000000000000000000000000000000000000000008152600401610ed89190611998565b60405180910390fd5b505050565b5f73ffffffffffffffffffffffffffffffffffffffff168273ffffffffffffffffffffffffffffffffffffffff1603610f5657816040517f5b08ba18000000000000000000000000000000000000000000000000000000008152600401610f4d9190611998565b60405180910390fd5b8060055f8573ffffffffffffffffffffffffffffffffffffffff1673ffffffffffffffffffffffffffffffffffffffff1681526020019081526020015f205f8473ffffffffffffffffffffffffffffffffffffffff1673ffffffffffffffffffffffffffffffffffffffff1681526020019081526020015f205f6101000a81548160ff0219169083151502179055508173ffffffffffffffffffffffffffffffffffffffff168373ffffffffffffffffffffffffffffffffffffffff167f17307eab39ab6107e8899845ad3d59bd9653f200f220920489ca2b5937696c31836040516110429190611852565b60405180910390a3505050565b5f8373ffffffffffffffffffffffffffffffffffffffff163b11156111f4578273ffffffffffffffffffffffffffffffffffffffff1663150b7a02868685856040518563ffffffff1660e01b81526004016110ad9493929190612329565b6020604051808303815f875af19250505080156110e857506040513d601f19601f820116820180604052508101906110e59190612387565b60015b611169573d805f8114611116576040519150601f19603f3d011682016040523d82523d5f602084013e61111b565b606091505b505f81510361116157836040517f64a0ae920000000000000000000000000000000000000000000000000000000081526004016111589190611998565b60405180910390fd5b805160208201fd5b63150b7a0260e01b7bffffffffffffffffffffffffffffffffffffffffffffffffffffffff1916817bffffffffffffffffffffffffffffffffffffffffffffffffffffffff1916146111f257836040517f64a0ae920000000000000000000000000000000000000000000000000000000081526004016111e99190611998565b60405180910390fd5b505b5050505050565b606060405180602001604052805f815250905090565b60605f600161121f84611596565b0190505f8167ffffffffffffffff81111561123d5761123c611a71565b5b6040519080825280601f01601f19166020018201604052801561126f5781602001600182028036833780820191505090505b5090505f82602083010190505b6001156112d0578080600190039150507f3031323334353637383961626364656600000000000000000000000000000000600a86061a8153600a85816112c5576112c46123b2565b5b0494505f850361127c575b819350505050919050565b5f60025f8381526020019081526020015f205f9054906101000a900473ffffffffffffffffffffffffffffffffffffffff169050919050565b808061134c57505f73ffffffffffffffffffffffffffffffffffffffff168273ffffffffffffffffffffffffffffffffffffffff1614155b1561147e575f61135b84610b10565b90505f73ffffffffffffffffffffffffffffffffffffffff168373ffffffffffffffffffffffffffffffffffffffff16141580156113c557508273ffffffffffffffffffffffffffffffffffffffff168173ffffffffffffffffffffffffffffffffffffffff1614155b80156113d857506113d681846109ee565b155b1561141a57826040517fa9fbf51f0000000000000000000000000000000000000000000000000000000081526004016114119190611998565b60405180910390fd5b811561147c57838573ffffffffffffffffffffffffffffffffffffffff168273ffffffffffffffffffffffffffffffffffffffff167f8c5be1e5ebec7d5bd14f71427d1e84f3dd0314c0f7b2291e5b200ac8c7c3b92560405160405180910390a45b505b8360045f8581526020019081526020015f205f6101000a81548173ffffffffffffffffffffffffffffffffffffffff021916908373ffffffffffffffffffffffffffffffffffffffff16021790555050505050565b6114de8383836116e7565b611591575f73ffffffffffffffffffffffffffffffffffffffff168373ffffffffffffffffffffffffffffffffffffffff160361155257806040517f7e2732890000000000000000000000000000000000000000000000000000000081526004016115499190611c16565b60405180910390fd5b81816040517f177e802f0000000000000000000000000000000000000000000000000000000081526004016115889291906123df565b60405180910390fd5b505050565b5f5f5f90507a184f03e93ff9f4daa797ed6e38ed64bf6a1f01000000000000000083106115f2577a184f03e93ff9f4daa797ed6e38ed64bf6a1f01000000000000000083816115e8576115e76123b2565b5b0492506040810190505b6d04ee2d6d415b85acef8100000000831061162f576d04ee2d6d415b85acef81000000008381611625576116246123b2565b5b0492506020810190505b662386f26fc10000831061165e57662386f26fc100008381611654576116536123b2565b5b0492506010810190505b6305f5e1008310611687576305f5e100838161167d5761167c6123b2565b5b0492506008810190505b61271083106116ac5761271083816116a2576116a16123b2565b5b0492506004810190505b606483106116cf57606483816116c5576116c46123b2565b5b0492506002810190505b600a83106116de576001810190505b80915050919050565b5f5f73ffffffffffffffffffffffffffffffffffffffff168373ffffffffffffffffffffffffffffffffffffffff161415801561179e57508273ffffffffffffffffffffffffffffffffffffffff168473ffffffffffffffffffffffffffffffffffffffff16148061175f575061175e84846109ee565b5b8061179d57508273ffffffffffffffffffffffffffffffffffffffff1661178583610b96565b73ffffffffffffffffffffffffffffffffffffffff16145b5b90509392505050565b5f604051905090565b5f5ffd5b5f5ffd5b5f7fffffffff0000000000000000000000000000000000000000000000000000000082169050919050565b6117ec816117b8565b81146117f6575f5ffd5b50565b5f81359050611807816117e3565b92915050565b5f60208284031215611822576118216117b0565b5b5f61182f848285016117f9565b91505092915050565b5f8115159050919050565b61184c81611838565b82525050565b5f6020820190506118655f830184611843565b92915050565b5f81519050919050565b5f82825260208201905092915050565b8281835e5f83830152505050565b5f601f19601f8301169050919050565b5f6118ad8261186b565b6118b78185611875565b93506118c7818560208601611885565b6118d081611893565b840191505092915050565b5f6020820190508181035f8301526118f381846118a3565b905092915050565b5f819050919050565b61190d816118fb565b8114611917575f5ffd5b50565b5f8135905061192881611904565b92915050565b5f60208284031215611943576119426117b0565b5b5f6119508482850161191a565b91505092915050565b5f73ffffffffffffffffffffffffffffffffffffffff82169050919050565b5f61198282611959565b9050919050565b61199281611978565b82525050565b5f6020820190506119ab5f830184611989565b92915050565b6119ba81611978565b81146119c4575f5ffd5b50565b5f813590506119d5816119b1565b92915050565b5f5f604083850312156119f1576119f06117b0565b5b5f6119fe858286016119c7565b9250506020611a0f8582860161191a565b9150509250929050565b5f5f5f60608486031215611a3057611a2f6117b0565b5b5f611a3d868287016119c7565b9350506020611a4e868287016119c7565b9250506040611a5f8682870161191a565b9150509250925092565b5f5ffd5b5f5ffd5b7f4e487b71000000000000000000000000000000000000000000000000000000005f52604160045260245ffd5b611aa782611893565b810181811067ffffffffffffffff82111715611ac657611ac5611a71565b5b80604052505050565b5f611ad86117a7565b9050611ae48282611a9e565b919050565b5f67ffffffffffffffff821115611b0357611b02611a71565b5b611b0c82611893565b9050602081019050919050565b828183375f83830152505050565b5f611b39611b3484611ae9565b611acf565b905082815260208101848484011115611b5557611b54611a6d565b5b611b60848285611b19565b509392505050565b5f82601f830112611b7c57611b7b611a69565b5b8135611b8c848260208601611b27565b91505092915050565b5f60208284031215611baa57611ba96117b0565b5b5f82013567ffffffffffffffff811115611bc757611bc66117b4565b5b611bd384828501611b68565b91505092915050565b5f60208284031215611bf157611bf06117b0565b5b5f611bfe848285016119c7565b91505092915050565b611c10816118fb565b82525050565b5f602082019050611c295f830184611c07565b92915050565b611c3881611838565b8114611c42575f5ffd5b50565b5f81359050611c5381611c2f565b92915050565b5f5f60408385031215611c6f57611c6e6117b0565b5b5f611c7c858286016119c7565b9250506020611c8d85828601611c45565b9150509250929050565b5f67ffffffffffffffff821115611cb157611cb0611a71565b5b611cba82611893565b9050602081019050919050565b5f611cd9611cd484611c97565b611acf565b905082815260208101848484011115611cf557611cf4611a6d565b5b611d00848285611b19565b509392505050565b5f82601f830112611d1c57611d1b611a69565b5b8135611d2c848260208601611cc7565b91505092915050565b5f5f5f5f60808587031215611d4d57611d4c6117b0565b5b5f611d5a878288016119c7565b9450506020611d6b878288016119c7565b9350506040611d7c8782880161191a565b925050606085013567ffffffffffffffff811115611d9d57611d9c6117b4565b5b611da987828801611d08565b91505092959194509250565b5f5f60408385031215611dcb57611dca6117b0565b5b5f611dd8858286016119c7565b9250506020611de9858286016119c7565b9150509250929050565b5f819050919050565b5f611e16611e11611e0c84611959565b611df3565b611959565b9050919050565b5f611e2782611dfc565b9050919050565b5f611e3882611e1d565b9050919050565b611e4881611e2e565b82525050565b5f602082019050611e615f830184611e3f565b92915050565b7f4e487b71000000000000000000000000000000000000000000000000000000005f52602260045260245ffd5b5f6002820490506001821680611eab57607f821691505b602082108103611ebe57611ebd611e67565b5b50919050565b5f606082019050611ed75f830186611989565b611ee46020830185611c07565b611ef16040830184611989565b949350505050565b5f81519050611f0781611c2f565b92915050565b5f60208284031215611f2257611f216117b0565b5b5f611f2f84828501611ef9565b91505092915050565b7f4e6f7420697373756572000000000000000000000000000000000000000000005f82015250565b5f611f6c600a83611875565b9150611f7782611f38565b602082019050919050565b5f6020820190508181035f830152611f9981611f60565b9050919050565b7f4e487b71000000000000000000000000000000000000000000000000000000005f52601160045260245ffd5b5f611fd7826118fb565b91507fffffffffffffffffffffffffffffffffffffffffffffffffffffffffffffffff820361200957612008611fa0565b5b600182019050919050565b5f819050815f5260205f209050919050565b5f6020601f8301049050919050565b5f82821b905092915050565b5f600883026120707fffffffffffffffffffffffffffffffffffffffffffffffffffffffffffffffff82612035565b61207a8683612035565b95508019841693508086168417925050509392505050565b5f6120ac6120a76120a2846118fb565b611df3565b6118fb565b9050919050565b5f819050919050565b6120c583612092565b6120d96120d1826120b3565b848454612041565b825550505050565b5f5f905090565b6120f06120e1565b6120fb8184846120bc565b505050565b5b8181101561211e576121135f826120e8565b600181019050612101565b5050565b601f8211156121635761213481612014565b61213d84612026565b8101602085101561214c578190505b61216061215885612026565b830182612100565b50505b505050565b5f82821c905092915050565b5f6121835f1984600802612168565b1980831691505092915050565b5f61219b8383612174565b9150826002028217905092915050565b6121b48261186b565b67ffffffffffffffff8111156121cd576121cc611a71565b5b6121d78254611e94565b6121e2828285612122565b5f60209050601f831160018114612213575f8415612201578287015190505b61220b8582612190565b865550612272565b601f19841661222186612014565b5f5b8281101561224857848901518255600182019150602085019450602081019050612223565b868310156122655784890151612261601f891682612174565b8355505b6001600288020188555050505b505050505050565b5f81905092915050565b5f61228e8261186b565b612298818561227a565b93506122a8818560208601611885565b80840191505092915050565b5f6122bf8285612284565b91506122cb8284612284565b91508190509392505050565b5f81519050919050565b5f82825260208201905092915050565b5f6122fb826122d7565b61230581856122e1565b9350612315818560208601611885565b61231e81611893565b840191505092915050565b5f60808201905061233c5f830187611989565b6123496020830186611989565b6123566040830185611c07565b818103606083015261236881846122f1565b905095945050505050565b5f81519050612381816117e3565b92915050565b5f6020828403121561239c5761239b6117b0565b5b5f6123a984828501612373565b91505092915050565b7f4e487b71000000000000000000000000000000000000000000000000000000005f52601260045260245ffd5b5f6040820190506123f25f830185611989565b6123ff6020830184611c07565b939250505056fea264697066735822122079e46ce142d889f3ace36a5d59f47373b569ded4970332f60ae00c515dad80f364736f6c634300081e0033","linkReferences":{}},"methodIdentifiers":{"admin()":"f851a440","approve(address,uint256)":"095ea7b3","assetCount()":"eafe7a74","assetIPFS(uint256)":"99b2a771","balanceOf(address)":"70a08231","createAsset(string)":"55b1f24e","getApproved(uint256)":"081812fc","isApprovedForAll(address,address)":"e985e9c5","name()":"06fdde03","ownerOf(uint256)":"6352211e","safeTransferFrom(address,address,uint256)":"42842e0e","safeTransferFrom(address,address,uint256,bytes)":"b88d4fde","setApprovalForAll(address,bool)":"a22cb465","supportsInterface(bytes4)":"01ffc9a7","symbol()":"95d89b41","tokenURI(uint256)":"c87b56dd","transferFrom(address,address,uint256)":"23b872dd"},"id":41}