{"abi":[{"type":"constructor","inputs":[{"name":"_admin","type":"address","internalType":"address"}],"stateMutability":"nonpayable"},{"type":"function","name":"HTS_PRECOMPILE","inputs":[],"outputs":[{"name":"","type":"address","internalType":"address"}],"stateMutability":"view"},{"type":"function","name":"SUCCESS","inputs":[],"outputs":[{"name":"","type":"int64","internalType":"int64"}],"stateMutability":"view"},{"type":"function","name":"admin","inputs":[],"outputs":[{"name":"","type":"address","internalType":"contract IAdminHts"}],"stateMutability":"view"},{"type":"function","name":"mintAndTransferFungible","inputs":[{"name":"token","type":"address","internalType":"address"},{"name":"to","type":"address","internalType":"address"},{"name":"amount","type":"uint64","internalType":"uint64"}],"outputs":[],"stateMutability":"nonpayable"},{"type":"event","name":"HtsMinted","inputs":[{"name":"token","type":"address","indexed":true,"internalType":"address"},{"name":"amount","type":"uint64","indexed":false,"internalType":"uint64"},{"name":"newTotalSupply","type":"uint64","indexed":false,"internalType":"uint64"}],"anonymous":false},{"type":"event","name":"HtsTransferred","inputs":[{"name":"token","type":"address","indexed":true,"internalType":"address"},{"name":"to","type":"address","indexed":true,"internalType":"address"},{"name":"amount","type":"uint64","indexed":false,"internalType":"uint64"}],"anonymous":false},{"type":"error","name":"HtsCallFailed","inputs":[{"name":"code","type":"int64","internalType":"int64"}]},{"type":"error","name":"NotIssuer","inputs":[]}],"bytecode":{"object":"0x60a060405234801561000f575f5ffd5b50604051610cd2380380610cd283398181016040528101906100319190610137565b5f73ffffffffffffffffffffffffffffffffffffffff168173ffffffffffffffffffffffffffffffffffffffff160361009f576040517f08c379a0000000000000000000000000000000000000000000000000000000008152600401610096906101bc565b60405180910390fd5b8073ffffffffffffffffffffffffffffffffffffffff1660808173ffffffffffffffffffffffffffffffffffffffff1681525050506101da565b5f5ffd5b5f73ffffffffffffffffffffffffffffffffffffffff82169050919050565b5f610106826100dd565b9050919050565b610116816100fc565b8114610120575f5ffd5b50565b5f815190506101318161010d565b92915050565b5f6020828403121561014c5761014b6100d9565b5b5f61015984828501610123565b91505092915050565b5f82825260208201905092915050565b7f496e76616c69642061646d696e000000000000000000000000000000000000005f82015250565b5f6101a6600d83610162565b91506101b182610172565b602082019050919050565b5f6020820190508181035f8301526101d38161019a565b9050919050565b608051610ada6101f85f395f818160c6015261044c0152610ada5ff3fe608060405234801561000f575f5ffd5b506004361061004a575f3560e01c80630924ed481461004e5780634543873d1461006a578063d0a6d1a614610088578063f851a440146100a6575b5f5ffd5b61006860048036038101906100639190610516565b6100c4565b005b61007261043f565b60405161007f9190610575565b60405180910390f35b610090610445565b60405161009d91906105a9565b60405180910390f35b6100ae61044a565b6040516100bb919061061d565b60405180910390f35b7f000000000000000000000000000000000000000000000000000000000000000073ffffffffffffffffffffffffffffffffffffffff1663877b9a67336040518263ffffffff1660e01b815260040161011d9190610575565b602060405180830381865afa158015610138573d5f5f3e3d5ffd5b505050506040513d601f19601f8201168201806040525081019061015c919061066b565b610192576040517f54ec506300000000000000000000000000000000000000000000000000000000815260040160405180910390fd5b5f5f61016773ffffffffffffffffffffffffffffffffffffffff1663278e0b8886855f67ffffffffffffffff8111156101ce576101cd610696565b5b60405190808252806020026020018201604052801561020157816020015b60608152602001906001900390816101ec5790505b506040518463ffffffff1660e01b8152600401610220939291906107fd565b5f604051808303815f875af115801561023b573d5f5f3e3d5ffd5b505050506040513d5f823e3d601f19601f82011682018060405250810190610263919061098a565b5091509150601660070b8260070b146102b357816040517feffd2a440000000000000000000000000000000000000000000000000000000081526004016102aa91906105a9565b60405180910390fd5b5f61016773ffffffffffffffffffffffffffffffffffffffff1663eca36917873088886040518563ffffffff1660e01b81526004016102f594939291906109f6565b6020604051808303815f875af1158015610311573d5f5f3e3d5ffd5b505050506040513d601f19601f820116820180604052508101906103359190610a39565b9050601660070b8160070b1461038257806040517feffd2a4400000000000000000000000000000000000000000000000000000000815260040161037991906105a9565b60405180910390fd5b8573ffffffffffffffffffffffffffffffffffffffff167fe58b7c6059e372511e6cc94280a927823ca2e8b438f9e1ec679ff1a9590b684085846040516103ca929190610a64565b60405180910390a28473ffffffffffffffffffffffffffffffffffffffff168673ffffffffffffffffffffffffffffffffffffffff167f91dddc095db5f698c0c6f6f429d8ef1a7f47a4680649605826e873568612fa5b8660405161042f9190610a8b565b60405180910390a3505050505050565b61016781565b601681565b7f000000000000000000000000000000000000000000000000000000000000000081565b5f604051905090565b5f5ffd5b5f5ffd5b5f73ffffffffffffffffffffffffffffffffffffffff82169050919050565b5f6104a88261047f565b9050919050565b6104b88161049e565b81146104c2575f5ffd5b50565b5f813590506104d3816104af565b92915050565b5f67ffffffffffffffff82169050919050565b6104f5816104d9565b81146104ff575f5ffd5b50565b5f81359050610510816104ec565b92915050565b5f5f5f6060848603121561052d5761052c610477565b5b5f61053a868287016104c5565b935050602061054b868287016104c5565b925050604061055c86828701610502565b9150509250925092565b61056f8161049e565b82525050565b5f6020820190506105885f830184610566565b92915050565b5f8160070b9050919050565b6105a38161058e565b82525050565b5f6020820190506105bc5f83018461059a565b92915050565b5f819050919050565b5f6105e56105e06105db8461047f565b6105c2565b61047f565b9050919050565b5f6105f6826105cb565b9050919050565b5f610607826105ec565b9050919050565b610617816105fd565b82525050565b5f6020820190506106305f83018461060e565b92915050565b5f8115159050919050565b61064a81610636565b8114610654575f5ffd5b50565b5f8151905061066581610641565b92915050565b5f602082840312156106805761067f610477565b5b5f61068d84828501610657565b91505092915050565b7f4e487b71000000000000000000000000000000000000000000000000000000005f52604160045260245ffd5b6106cc816104d9565b82525050565b5f81519050919050565b5f82825260208201905092915050565b5f819050602082019050919050565b5f81519050919050565b5f82825260208201905092915050565b8281835e5f83830152505050565b5f601f19601f8301169050919050565b5f61073d826106fb565b6107478185610705565b9350610757818560208601610715565b61076081610723565b840191505092915050565b5f6107768383610733565b905092915050565b5f602082019050919050565b5f610794826106d2565b61079e81856106dc565b9350836020820285016107b0856106ec565b805f5b858110156107eb57848403895281516107cc858261076b565b94506107d78361077e565b925060208a019950506001810190506107b3565b50829750879550505050505092915050565b5f6060820190506108105f830186610566565b61081d60208301856106c3565b818103604083015261082f818461078a565b9050949350505050565b6108428161058e565b811461084c575f5ffd5b50565b5f8151905061085d81610839565b92915050565b5f81519050610871816104ec565b92915050565b5f5ffd5b61088482610723565b810181811067ffffffffffffffff821117156108a3576108a2610696565b5b80604052505050565b5f6108b561046e565b90506108c1828261087b565b919050565b5f67ffffffffffffffff8211156108e0576108df610696565b5b602082029050602081019050919050565b5f5ffd5b5f610907610902846108c6565b6108ac565b9050808382526020820190506020840283018581111561092a576109296108f1565b5b835b81811015610953578061093f888261084f565b84526020840193505060208101905061092c565b5050509392505050565b5f82601f83011261097157610970610877565b5b81516109818482602086016108f5565b91505092915050565b5f5f5f606084860312156109a1576109a0610477565b5b5f6109ae8682870161084f565b93505060206109bf86828701610863565b925050604084015167ffffffffffffffff8111156109e0576109df61047b565b5b6109ec8682870161095d565b9150509250925092565b5f608082019050610a095f830187610566565b610a166020830186610566565b610a236040830185610566565b610a30606083018461059a565b95945050505050565b5f60208284031215610a4e57610a4d610477565b5b5f610a5b8482850161084f565b91505092915050565b5f604082019050610a775f8301856106c3565b610a8460208301846106c3565b9392505050565b5f602082019050610a9e5f8301846106c3565b9291505056fea26469706673582212204e6f10b5a8d4b503b88d068590c6eb65bb1a8e02a682d51ead6cdda9e60b3f6b64736f6c634300081e0033","linkReferences":{}},"methodIdentifiers":{"HTS_PRECOMPILE()":"4543873d","SUCCESS()":"d0a6d1a6","admin()":"f851a440","mintAndTransferFungible(address,address,uint64)":"0924ed48"},"id":50}