{"abi":[{"type":"constructor","inputs":[{"name":"_token","type":"address","internalType":"address"},{"name":"_admin","type":"address","internalType":"address"}],"stateMutability":"nonpayable"},{"type":"function","name":"admin","inputs":[],"outputs":[{"name":"","type":"address","internalType":"contract Admin"}],"stateMutability":"view"},{"type":"function","name":"buy","inputs":[{"name":"listingId","type":"uint256","internalType":"uint256"}],"outputs":[],"stateMutability":"payable"},{"type":"function","name":"list","inputs":[{"name":"assetId","type":"uint256","internalType":"uint256"},{"name":"amount","type":"uint256","internalType":"uint256"},{"name":"price","type":"uint256","internalType":"uint256"}],"outputs":[],"stateMutability":"nonpayable"},{"type":"function","name":"listings","inputs":[{"name":"","type":"uint256","internalType":"uint256"}],"outputs":[{"name":"seller","type":"address","internalType":"address"},{"name":"assetId","type":"uint256","internalType":"uint256"},{"name":"amount","type":"uint256","internalType":"uint256"},{"name":"price","type":"uint256","internalType":"uint256"}],"stateMutability":"view"},{"type":"function","name":"token","inputs":[],"outputs":[{"name":"","type":"address","internalType":"contract FractionalToken"}],"stateMutability":"view"}],"bytecode":{"object":"0x608060405234801561000f575f5ffd5b50604051610aa1380380610aa183398181016040528101906100319190610116565b8160015f6101000a81548173ffffffffffffffffffffffffffffffffffffffff021916908373ffffffffffffffffffffffffffffffffffffffff1602179055508060025f6101000a81548173ffffffffffffffffffffffffffffffffffffffff021916908373ffffffffffffffffffffffffffffffffffffffff1602179055505050610154565b5f5ffd5b5f73ffffffffffffffffffffffffffffffffffffffff82169050919050565b5f6100e5826100bc565b9050919050565b6100f5816100db565b81146100ff575f5ffd5b50565b5f81519050610110816100ec565b92915050565b5f5f6040838503121561012c5761012b6100b8565b5b5f61013985828601610102565b925050602061014a85828601610102565b9150509250929050565b610940806101615f395ff3fe608060405260043610610049575f3560e01c806319aeb4901461004d578063d96a094a14610075578063de74e57b14610091578063f851a440146100d0578063fc0c546a146100fa575b5f5ffd5b348015610058575f5ffd5b50610073600480360381019061006e919061055b565b610124565b005b61008f600480360381019061008a91906105ab565b6101eb565b005b34801561009c575f5ffd5b506100b760048036038101906100b291906105ab565b610481565b6040516100c79493929190610624565b60405180910390f35b3480156100db575f5ffd5b506100e46104da565b6040516100f191906106c2565b60405180910390f35b348015610105575f5ffd5b5061010e6104ff565b60405161011b91906106fb565b60405180910390f35b5f60405180608001604052803373ffffffffffffffffffffffffffffffffffffffff16815260200185815260200184815260200183815250908060018154018082558091505060019003905f5260205f2090600402015f909190919091505f820151815f015f6101000a81548173ffffffffffffffffffffffffffffffffffffffff021916908373ffffffffffffffffffffffffffffffffffffffff1602179055506020820151816001015560408201518160020155606082015181600301555050505050565b60025f9054906101000a900473ffffffffffffffffffffffffffffffffffffffff1673ffffffffffffffffffffffffffffffffffffffff1663ec8b90716040518163ffffffff1660e01b8152600401602060405180830381865afa158015610255573d5f5f3e3d5ffd5b505050506040513d601f19601f820116820180604052508101906102799190610749565b156102b9576040517f08c379a00000000000000000000000000000000000000000000000000000000081526004016102b0906107ce565b60405180910390fd5b5f5f82815481106102cd576102cc6107ec565b5b905f5260205f2090600402016040518060800160405290815f82015f9054906101000a900473ffffffffffffffffffffffffffffffffffffffff1673ffffffffffffffffffffffffffffffffffffffff1673ffffffffffffffffffffffffffffffffffffffff168152602001600182015481526020016002820154815260200160038201548152505090508060600151341461039e576040517f08c379a000000000000000000000000000000000000000000000000000000000815260040161039590610863565b60405180910390fd5b60015f9054906101000a900473ffffffffffffffffffffffffffffffffffffffff1673ffffffffffffffffffffffffffffffffffffffff1663f242432a825f015133846020015185604001516040518563ffffffff1660e01b815260040161040994939291906108b4565b5f604051808303815f87803b158015610420575f5ffd5b505af1158015610432573d5f5f3e3d5ffd5b50505050805f015173ffffffffffffffffffffffffffffffffffffffff166108fc3490811502906040515f60405180830381858888f1935050505015801561047c573d5f5f3e3d5ffd5b505050565b5f818154811061048f575f80fd5b905f5260205f2090600402015f91509050805f015f9054906101000a900473ffffffffffffffffffffffffffffffffffffffff16908060010154908060020154908060030154905084565b60025f9054906101000a900473ffffffffffffffffffffffffffffffffffffffff1681565b60015f9054906101000a900473ffffffffffffffffffffffffffffffffffffffff1681565b5f5ffd5b5f819050919050565b61053a81610528565b8114610544575f5ffd5b50565b5f8135905061055581610531565b92915050565b5f5f5f6060848603121561057257610571610524565b5b5f61057f86828701610547565b935050602061059086828701610547565b92505060406105a186828701610547565b9150509250925092565b5f602082840312156105c0576105bf610524565b5b5f6105cd84828501610547565b91505092915050565b5f73ffffffffffffffffffffffffffffffffffffffff82169050919050565b5f6105ff826105d6565b9050919050565b61060f816105f5565b82525050565b61061e81610528565b82525050565b5f6080820190506106375f830187610606565b6106446020830186610615565b6106516040830185610615565b61065e6060830184610615565b95945050505050565b5f819050919050565b5f61068a610685610680846105d6565b610667565b6105d6565b9050919050565b5f61069b82610670565b9050919050565b5f6106ac82610691565b9050919050565b6106bc816106a2565b82525050565b5f6020820190506106d55f8301846106b3565b92915050565b5f6106e582610691565b9050919050565b6106f5816106db565b82525050565b5f60208201905061070e5f8301846106ec565b92915050565b5f8115159050919050565b61072881610714565b8114610732575f5ffd5b50565b5f815190506107438161071f565b92915050565b5f6020828403121561075e5761075d610524565b5b5f61076b84828501610735565b91505092915050565b5f82825260208201905092915050565b7f4d61726b6574706c6163652070617573656400000000000000000000000000005f82015250565b5f6107b8601283610774565b91506107c382610784565b602082019050919050565b5f6020820190508181035f8301526107e5816107ac565b9050919050565b7f4e487b71000000000000000000000000000000000000000000000000000000005f52603260045260245ffd5b7f57726f6e672070726963650000000000000000000000000000000000000000005f82015250565b5f61084d600b83610774565b915061085882610819565b602082019050919050565b5f6020820190508181035f83015261087a81610841565b9050919050565b5f82825260208201905092915050565b50565b5f61089f5f83610881565b91506108aa82610891565b5f82019050919050565b5f60a0820190506108c75f830187610606565b6108d46020830186610606565b6108e16040830185610615565b6108ee6060830184610615565b81810360808301526108ff81610894565b90509594505050505056fea2646970667358221220da78d5e929de03d6965a6173c111efe610267d6ec539fb25ec30f994e9b0849564736f6c634300081e0033","linkReferences":{}},"methodIdentifiers":{"admin()":"f851a440","buy(uint256)":"d96a094a","list(uint256,uint256,uint256)":"19aeb490","listings(uint256)":"de74e57b","token()":"fc0c546a"},"id":44}