{"abi":[{"type":"constructor","inputs":[{"name":"_token","type":"address","internalType":"address"},{"name":"_admin","type":"address","internalType":"address"}],"stateMutability":"nonpayable"},{"type":"function","name":"ACC_PRECISION","inputs":[],"outputs":[{"name":"","type":"uint256","internalType":"uint256"}],"stateMutability":"view"},{"type":"function","name":"accIncomePerShare","inputs":[{"name":"","type":"uint256","internalType":"uint256"}],"outputs":[{"name":"","type":"uint256","internalType":"uint256"}],"stateMutability":"view"},{"type":"function","name":"admin","inputs":[],"outputs":[{"name":"","type":"address","internalType":"contract IAdminIncome"}],"stateMutability":"view"},{"type":"function","name":"claim","inputs":[{"name":"assetId","type":"uint256","internalType":"uint256"}],"outputs":[],"stateMutability":"nonpayable"},{"type":"function","name":"credits","inputs":[{"name":"","type":"address","internalType":"address"},{"name":"","type":"uint256","internalType":"uint256"}],"outputs":[{"name":"","type":"uint256","internalType":"uint256"}],"stateMutability":"view"},{"type":"function","name":"depositIncome","inputs":[{"name":"assetId","type":"uint256","internalType":"uint256"}],"outputs":[],"stateMutability":"payable"},{"type":"function","name":"onBalanceChange","inputs":[{"name":"from","type":"address","internalType":"address"},{"name":"to","type":"address","internalType":"address"},{"name":"assetId","type":"uint256","internalType":"uint256"},{"name":"oldFromBalance","type":"uint256","internalType":"uint256"},{"name":"newFromBalance","type":"uint256","internalType":"uint256"},{"name":"oldToBalance","type":"uint256","internalType":"uint256"},{"name":"newToBalance","type":"uint256","internalType":"uint256"}],"outputs":[],"stateMutability":"nonpayable"},{"type":"function","name":"pending","inputs":[{"name":"account","type":"address","internalType":"address"},{"name":"assetId","type":"uint256","internalType":"uint256"}],"outputs":[{"name":"","type":"uint256","internalType":"uint256"}],"stateMutability":"view"},{"type":"function","name":"rewardDebt","inputs":[{"name":"","type":"address","internalType":"address"},{"name":"","type":"uint256","internalType":"uint256"}],"outputs":[{"name":"","type":"uint256","internalType":"uint256"}],"stateMutability":"view"},{"type":"function","name":"token","inputs":[],"outputs":[{"name":"","type":"address","internalType":"address"}],"stateMutability":"view"},{"type":"event","name":"Claimed","inputs":[{"name":"assetId","type":"uint256","indexed":true,"internalType":"uint256"},{"name":"account","type":"address","indexed":true,"internalType":"address"},{"name":"amount","type":"uint256","indexed":false,"internalType":"uint256"}],"anonymous":false},{"type":"event","name":"IncomeDeposited","inputs":[{"name":"assetId","type":"uint256","indexed":true,"internalType":"uint256"},{"name":"depositor","type":"address","indexed":true,"internalType":"address"},{"name":"amount","type":"uint256","indexed":false,"internalType":"uint256"},{"name":"accIncomePerShare","type":"uint256","indexed":false,"internalType":"uint256"}],"anonymous":false},{"type":"error","name":"EthTransferFailed","inputs":[]},{"type":"error","name":"InvalidAmount","inputs":[]},{"type":"error","name":"NoShares","inputs":[]},{"type":"error","name":"NotAuthorized","inputs":[]},{"type":"error","name":"OnlyToken","inputs":[]}],"bytecode":{"object":"0x60c060405234801561000f575f5ffd5b506040516118bb3803806118bb833981810160405281019061003191906101a5565b5f73ffffffffffffffffffffffffffffffffffffffff168273ffffffffffffffffffffffffffffffffffffffff161415801561009957505f73ffffffffffffffffffffffffffffffffffffffff168173ffffffffffffffffffffffffffffffffffffffff1614155b6100d8576040517f08c379a00000000000000000000000000000000000000000000000000000000081526004016100cf9061023d565b60405180910390fd5b8173ffffffffffffffffffffffffffffffffffffffff1660808173ffffffffffffffffffffffffffffffffffffffff16815250508073ffffffffffffffffffffffffffffffffffffffff1660a08173ffffffffffffffffffffffffffffffffffffffff1681525050505061025b565b5f5ffd5b5f73ffffffffffffffffffffffffffffffffffffffff82169050919050565b5f6101748261014b565b9050919050565b6101848161016a565b811461018e575f5ffd5b50565b5f8151905061019f8161017b565b92915050565b5f5f604083850312156101bb576101ba610147565b5b5f6101c885828601610191565b92505060206101d985828601610191565b9150509250929050565b5f82825260208201905092915050565b7f496e76616c6964206164647265737300000000000000000000000000000000005f82015250565b5f610227600f836101e3565b9150610232826101f3565b602082019050919050565b5f6020820190508181035f8301526102548161021b565b9050919050565b60805160a05161160e6102ad5f395f8181610e6701528181610ed001528181610f98015261103e01525f81816102720152818161042a015281816107f6015281816109720152610e8b015261160e5ff3fe608060405260043610610090575f3560e01c80639c807ac8116100585780639c807ac81461017a578063e2d076c9146101a2578063f851a440146101de578063fc0c546a14610208578063ff76a8611461023257610090565b806315167c031461009457806332fcd966146100d0578063379607f5146100fa5780634e2fafe2146101225780637c6dcd531461015e575b5f5ffd5b34801561009f575f5ffd5b506100ba60048036038101906100b59190611170565b61026e565b6040516100c791906111bd565b60405180910390f35b3480156100db575f5ffd5b506100e461041b565b6040516100f191906111bd565b60405180910390f35b348015610105575f5ffd5b50610120600480360381019061011b91906111d6565b610427565b005b34801561012d575f5ffd5b50610148600480360381019061014391906111d6565b610766565b60405161015591906111bd565b60405180910390f35b610178600480360381019061017391906111d6565b61077a565b005b348015610185575f5ffd5b506101a0600480360381019061019b9190611201565b610970565b005b3480156101ad575f5ffd5b506101c860048036038101906101c39190611170565b610e45565b6040516101d591906111bd565b60405180910390f35b3480156101e9575f5ffd5b506101f2610e65565b6040516101ff91906112f9565b60405180910390f35b348015610213575f5ffd5b5061021c610e89565b6040516102299190611321565b60405180910390f35b34801561023d575f5ffd5b5061025860048036038101906102539190611170565b610ead565b60405161026591906111bd565b60405180910390f35b5f5f7f000000000000000000000000000000000000000000000000000000000000000073ffffffffffffffffffffffffffffffffffffffff1662fdd58e85856040518363ffffffff1660e01b81526004016102ca92919061133a565b602060405180830381865afa1580156102e5573d5f5f3e3d5ffd5b505050506040513d601f19601f820116820180604052508101906103099190611375565b90505f5f5f8581526020019081526020015f205490505f670de0b6b3a7640000828461033591906113cd565b61033f919061143b565b90505f60015f8873ffffffffffffffffffffffffffffffffffffffff1673ffffffffffffffffffffffffffffffffffffffff1681526020019081526020015f205f8781526020019081526020015f205490505f60025f8973ffffffffffffffffffffffffffffffffffffffff1673ffffffffffffffffffffffffffffffffffffffff1681526020019081526020015f205f8881526020019081526020015f20549050818310156103f6578095505050505050610415565b8183610402919061146b565b8161040d919061149e565b955050505050505b92915050565b670de0b6b3a764000081565b5f7f000000000000000000000000000000000000000000000000000000000000000073ffffffffffffffffffffffffffffffffffffffff1662fdd58e33846040518363ffffffff1660e01b815260040161048292919061133a565b602060405180830381865afa15801561049d573d5f5f3e3d5ffd5b505050506040513d601f19601f820116820180604052508101906104c19190611375565b90505f5f5f8481526020019081526020015f205490505f670de0b6b3a764000082846104ed91906113cd565b6104f7919061143b565b90505f60015f3373ffffffffffffffffffffffffffffffffffffffff1673ffffffffffffffffffffffffffffffffffffffff1681526020019081526020015f205f8681526020019081526020015f205490505f60025f3373ffffffffffffffffffffffffffffffffffffffff1673ffffffffffffffffffffffffffffffffffffffff1681526020019081526020015f205f8781526020019081526020015f20549050818311156105bb5781836105ad919061146b565b816105b8919061149e565b90505b5f60025f3373ffffffffffffffffffffffffffffffffffffffff1673ffffffffffffffffffffffffffffffffffffffff1681526020019081526020015f205f8881526020019081526020015f20819055508260015f3373ffffffffffffffffffffffffffffffffffffffff1673ffffffffffffffffffffffffffffffffffffffff1681526020019081526020015f205f8881526020019081526020015f20819055505f810361066e575050505050610763565b5f3373ffffffffffffffffffffffffffffffffffffffff1682604051610693906114fe565b5f6040518083038185875af1925050503d805f81146106cd576040519150601f19603f3d011682016040523d82523d5f602084013e6106d2565b606091505b505090508061070d576040517f6d963f8800000000000000000000000000000000000000000000000000000000815260040160405180910390fd5b3373ffffffffffffffffffffffffffffffffffffffff16877f4ec90e965519d92681267467f775ada5bd214aa92c0dc93d90a5e880ce9ed0268460405161075491906111bd565b60405180910390a35050505050505b50565b5f602052805f5260405f205f915090505481565b5f34036107b3576040517f2c5211c600000000000000000000000000000000000000000000000000000000815260040160405180910390fd5b6107bd3382610ecd565b6107f3576040517fea8e4eb500000000000000000000000000000000000000000000000000000000815260040160405180910390fd5b5f7f000000000000000000000000000000000000000000000000000000000000000073ffffffffffffffffffffffffffffffffffffffff166313f2dad0836040518263ffffffff1660e01b815260040161084d91906111bd565b602060405180830381865afa158015610868573d5f5f3e3d5ffd5b505050506040513d601f19601f8201168201806040525081019061088c9190611375565b90505f81036108c7576040517fb317087b00000000000000000000000000000000000000000000000000000000815260040160405180910390fd5b80670de0b6b3a7640000346108dc91906113cd565b6108e6919061143b565b5f5f8481526020019081526020015f205f828254610904919061149e565b925050819055503373ffffffffffffffffffffffffffffffffffffffff16827fc789687da4d5cec9cff30b5495d2a8b9f262b91ffb301180d33518820dafc057345f5f8781526020019081526020015f2054604051610964929190611512565b60405180910390a35050565b7f000000000000000000000000000000000000000000000000000000000000000073ffffffffffffffffffffffffffffffffffffffff163373ffffffffffffffffffffffffffffffffffffffff16146109f5576040517ff43c367c00000000000000000000000000000000000000000000000000000000815260040160405180910390fd5b5f5f5f8781526020019081526020015f205490505f8103610b20575f73ffffffffffffffffffffffffffffffffffffffff168873ffffffffffffffffffffffffffffffffffffffff1614610a95575f60015f8a73ffffffffffffffffffffffffffffffffffffffff1673ffffffffffffffffffffffffffffffffffffffff1681526020019081526020015f205f8881526020019081526020015f20819055505b5f73ffffffffffffffffffffffffffffffffffffffff168773ffffffffffffffffffffffffffffffffffffffff1614610b1a575f60015f8973ffffffffffffffffffffffffffffffffffffffff1673ffffffffffffffffffffffffffffffffffffffff1681526020019081526020015f205f8881526020019081526020015f20819055505b50610e3c565b5f73ffffffffffffffffffffffffffffffffffffffff168873ffffffffffffffffffffffffffffffffffffffff1614610cad575f670de0b6b3a76400008287610b6991906113cd565b610b73919061143b565b90505f60015f8b73ffffffffffffffffffffffffffffffffffffffff1673ffffffffffffffffffffffffffffffffffffffff1681526020019081526020015f205f8981526020019081526020015f2054905080821115610c3b578082610bd9919061146b565b60025f8c73ffffffffffffffffffffffffffffffffffffffff1673ffffffffffffffffffffffffffffffffffffffff1681526020019081526020015f205f8a81526020019081526020015f205f828254610c33919061149e565b925050819055505b670de0b6b3a76400008387610c5091906113cd565b610c5a919061143b565b60015f8c73ffffffffffffffffffffffffffffffffffffffff1673ffffffffffffffffffffffffffffffffffffffff1681526020019081526020015f205f8a81526020019081526020015f208190555050505b5f73ffffffffffffffffffffffffffffffffffffffff168773ffffffffffffffffffffffffffffffffffffffff1614610e3a575f670de0b6b3a76400008285610cf691906113cd565b610d00919061143b565b90505f60015f8a73ffffffffffffffffffffffffffffffffffffffff1673ffffffffffffffffffffffffffffffffffffffff1681526020019081526020015f205f8981526020019081526020015f2054905080821115610dc8578082610d66919061146b565b60025f8b73ffffffffffffffffffffffffffffffffffffffff1673ffffffffffffffffffffffffffffffffffffffff1681526020019081526020015f205f8a81526020019081526020015f205f828254610dc0919061149e565b925050819055505b670de0b6b3a76400008385610ddd91906113cd565b610de7919061143b565b60015f8b73ffffffffffffffffffffffffffffffffffffffff1673ffffffffffffffffffffffffffffffffffffffff1681526020019081526020015f205f8a81526020019081526020015f208190555050505b505b50505050505050565b6001602052815f5260405f20602052805f5260405f205f91509150505481565b7f000000000000000000000000000000000000000000000000000000000000000081565b7f000000000000000000000000000000000000000000000000000000000000000081565b6002602052815f5260405f20602052805f5260405f205f91509150505481565b5f7f000000000000000000000000000000000000000000000000000000000000000073ffffffffffffffffffffffffffffffffffffffff16638da5cb5b6040518163ffffffff1660e01b8152600401602060405180830381865afa158015610f37573d5f5f3e3d5ffd5b505050506040513d601f19601f82011682018060405250810190610f5b919061154d565b73ffffffffffffffffffffffffffffffffffffffff168373ffffffffffffffffffffffffffffffffffffffff1603610f9657600190506110d9565b7f000000000000000000000000000000000000000000000000000000000000000073ffffffffffffffffffffffffffffffffffffffff1663877b9a67846040518263ffffffff1660e01b8152600401610fef9190611321565b602060405180830381865afa15801561100a573d5f5f3e3d5ffd5b505050506040513d601f19601f8201168201806040525081019061102e91906115ad565b1561103c57600190506110d9565b7f000000000000000000000000000000000000000000000000000000000000000073ffffffffffffffffffffffffffffffffffffffff16637bb49ed484846040518363ffffffff1660e01b815260040161109792919061133a565b602060405180830381865afa1580156110b2573d5f5f3e3d5ffd5b505050506040513d601f19601f820116820180604052508101906110d691906115ad565b90505b92915050565b5f5ffd5b5f73ffffffffffffffffffffffffffffffffffffffff82169050919050565b5f61110c826110e3565b9050919050565b61111c81611102565b8114611126575f5ffd5b50565b5f8135905061113781611113565b92915050565b5f819050919050565b61114f8161113d565b8114611159575f5ffd5b50565b5f8135905061116a81611146565b92915050565b5f5f60408385031215611186576111856110df565b5b5f61119385828601611129565b92505060206111a48582860161115c565b9150509250929050565b6111b78161113d565b82525050565b5f6020820190506111d05f8301846111ae565b92915050565b5f602082840312156111eb576111ea6110df565b5b5f6111f88482850161115c565b91505092915050565b5f5f5f5f5f5f5f60e0888a03121561121c5761121b6110df565b5b5f6112298a828b01611129565b975050602061123a8a828b01611129565b965050604061124b8a828b0161115c565b955050606061125c8a828b0161115c565b945050608061126d8a828b0161115c565b93505060a061127e8a828b0161115c565b92505060c061128f8a828b0161115c565b91505092959891949750929550565b5f819050919050565b5f6112c16112bc6112b7846110e3565b61129e565b6110e3565b9050919050565b5f6112d2826112a7565b9050919050565b5f6112e3826112c8565b9050919050565b6112f3816112d9565b82525050565b5f60208201905061130c5f8301846112ea565b92915050565b61131b81611102565b82525050565b5f6020820190506113345f830184611312565b92915050565b5f60408201905061134d5f830185611312565b61135a60208301846111ae565b9392505050565b5f8151905061136f81611146565b92915050565b5f6020828403121561138a576113896110df565b5b5f61139784828501611361565b91505092915050565b7f4e487b71000000000000000000000000000000000000000000000000000000005f52601160045260245ffd5b5f6113d78261113d565b91506113e28361113d565b92508282026113f08161113d565b91508282048414831517611407576114066113a0565b5b5092915050565b7f4e487b71000000000000000000000000000000000000000000000000000000005f52601260045260245ffd5b5f6114458261113d565b91506114508361113d565b9250826114605761145f61140e565b5b828204905092915050565b5f6114758261113d565b91506114808361113d565b9250828203905081811115611498576114976113a0565b5b92915050565b5f6114a88261113d565b91506114b38361113d565b92508282019050808211156114cb576114ca6113a0565b5b92915050565b5f81905092915050565b50565b5f6114e95f836114d1565b91506114f4826114db565b5f82019050919050565b5f611508826114de565b9150819050919050565b5f6040820190506115255f8301856111ae565b61153260208301846111ae565b9392505050565b5f8151905061154781611113565b92915050565b5f60208284031215611562576115616110df565b5b5f61156f84828501611539565b91505092915050565b5f8115159050919050565b61158c81611578565b8114611596575f5ffd5b50565b5f815190506115a781611583565b92915050565b5f602082840312156115c2576115c16110df565b5b5f6115cf84828501611599565b9150509291505056fea26469706673582212200a94d90387d9bc70c24aa1a0fd4797cb65e2cc89ab3cb4e9e0ac739f5f3255af64736f6c634300081e0033","linkReferences":{}},"methodIdentifiers":{"ACC_PRECISION()":"32fcd966","accIncomePerShare(uint256)":"4e2fafe2","admin()":"f851a440","claim(uint256)":"379607f5","credits(address,uint256)":"ff76a861","depositIncome(uint256)":"7c6dcd53","onBalanceChange(address,address,uint256,uint256,uint256,uint256,uint256)":"9c807ac8","pending(address,uint256)":"15167c03","rewardDebt(address,uint256)":"e2d076c9","token()":"fc0c546a"},"id":51}